:020000041000EA
:1090000010B5164A164B9A4212D01A00154B9A42C6
:109010000ED2154B134A0332D21A92080132920033
:1090200000230F480D49CC58C45004339342FAD161
:109030000E4A0F4B9A420BD21300D2430C495218DE
:1090400003218A430432D218002102C39A42FCD180
:10905000084B9847084B984710BDC046B8240110EC
:10906000B82401102C250110BC2401102C2501105E
:10907000504E0110CD03011075C4001010B5064C00
:109080002378002B07D1054B002B02D0044800E0C9
:1090900000BF0123237010BD2C250110000000002B
:1090A000B8240110084B10B5002B03D0074908481D
:1090B00000E000BF07480368002B00D110BD064B3D
:1090C000002BFBD09847F9E7000000003025011085
:1090D000B8240110B8240110000000000023037020
:1090E00001334370837070470F2810D8002907D0D0
:1090F0001D498B880122824013439BB28B807047AD
:1091000019498B880122824093438B80F7E71F28FF
:1091100014D8002909D015498B880F2210400E3A27
:10912000824013439BB28B80E9E710498B880F2262
:1091300010400E3A824093438B80E0E7002908D12B
:109140000B498B880F2210400E3A824093438B804C
:10915000D5E707498B880F2210400E3A824013430F
:109160009BB28B80CBE7C04600000140001001405D
:1091700000300140F0B50A0AFF231940072832D811
:10918000674C656CF83B03409B0007269E40B54347
:109190006564656C0E009E4033002B4363640129B7
:1091A00000D0F0BD03280ED8A031FF31655803234D
:1091B0001840C0003C3383409D4365506358824053
:1091C0001A436250EDE7564CD221490065580323FB
:1091D0001840C0003C3383409D4365506358824033
:1091E0001A436250DDE70F2831D84D4CA56C072398
:1091F00003409B0007269E40B543A564A56C0E0066
:109200009E4033002B43A3640129CAD10B280ED8FA
:10921000A831FF31655803231840C0003C33834018
:109220009D436550635882401A436250B9E73C4CF5
:10923000D6214900655803231840C0003C338340C1
:109240009D436550635882401A436250A9E717282E
:1092500031D8334CE56C072303409B0007269E4022
:10926000B543E564E56C0E009E4033002B43E36498
:10927000012996D113280ED8B031FF316558032348
:109280001840C0003C3383409D4365506358824082
:109290001A43625085E7224CDA21490065580323BE
:1092A0001840C0003C3383409D4365506358824062
:1092B0001A43625075E703001D3B022B20D90300BF
:1092C0002C3B032B00D96CE7164C8222D200A35C06
:1092D0001B072C38012787401B0F0F25A65CBB43BB
:1092E000AE433343A354A35C1B071B0F81401943B8
:1092F000A35C0F200840AB4319000143A15450E781
:10930000084A14881F23181A80001C3B83409C4382
:10931000148013888140194389B2118041E7C04607
:1093200000B0004000F00040F8B504000D00172028
:10933000012C5ED9814BDB681B0603D57F4B1B6973
:109340009B0404D405207E4EB0472820B04700215E
:1093500020007C4B98472B78002B19D10F2C05D877
:109360000133A3409BB2784A938213E01F2C07D8A5
:109370000F222240012393409BB2744A938209E05A
:109380000F222240012393409BB2714A938201E055
:10939000012B2FD023001D3BDBB2022B52D86A7861
:1093A0001720022A25D0A978002904D0012B20D922
:1093B0002B78012B1DD0012A35D06648037D1F2153
:1093C000091B01228A401343DBB20375AB78002BE3
:1093D00031D060490B881F22141BA4001E3AA24002
:1093E00013439BB20B805C4A137802210B4313702A
:1093F0000020F8BD0F2C04D8A3409BB2524A138220
:10940000C8E71F2C07D80F222240012393409BB2AC
:109410004E4A1382BEE70F222240012393409BB2A3
:109420004B4A1382B6E74B48037D1F21091B8A4034
:1094300093430375CAE7484A137802218B4313709C
:109440000020D6E70020172C0FD86B78012B19D0FD
:10945000002B03D0022B21D0172006E0374A116DD4
:109460000123A3400B431365002023002C3B032B57
:10947000BFD86B78012B2CD0002B1AD0022B42D0F6
:109480001720B6E72D4A516D0123A340DB43194055
:109490005165116D0B4013650020E6E7274B596DB0
:1094A0000122A24011435965196D914319650020AD
:1094B000DBE7224D29496A5C12092C3C0123A340B9
:1094C00013430F2213406C5C1B01224013436B5467
:1094D0008FE71A4D21496A5C12072C3C0123A340F7
:1094E000DB435BB2120F6C5C1A400F26B44322437D
:1094F0006A546A5C120913406C5C1B010F22224003
:1095000013436B5475E70D4D14496A5C1207120F33
:109510002C3C0126A64076B232430F246B5C2240DD
:109520000F27BB431A436A546B5C1B09B3432340A8
:109530006A5C1B01144023436B545AE700B000409F
:10954000F1950010759100100000014000100140DD
:109550000030014000F0004000E000401404000032
:10956000012819D0002803D0022828D0172012E0A3
:10957000174A93690C2003439361164A164B1A60ED
:10958000134A93690320834393619069032319402D
:1095900001439161002070470D4B9A6908200243F6
:1095A0009A619A69043882439A610C4A5068802310
:1095B0001B03034353600A4A074B1A60E0E7044A5F
:1095C00093690C2083439361024A034B1A60D7E7E7
:1095D00000B0004080BA8C01343B011000F0004024
:1095E00080841E00014B18687047C046343B011050
:1095F00000B5352800D9A2E18000D24B1B589F4608
:10960000D14AD36802210B43D360002000BDCE4A6B
:10961000D36804210B43D3600020F7E7CA4AD3681C
:1096200008210B43D3600020F0E7C74AD36810211C
:109630000B43D3600020E9E7C34AD36820210B43E2
:10964000D3600020E2E7C04AD36880210B43D36097
:109650000020DBE7BC4AD16880235B000B43D3606A
:109660000020D3E7B84AD16880231B010B43D360A5
:109670000020CBE7B44AD16880235B010B43D36061
:109680000020C3E7B04AD16880239B010B43D3601D
:109690000020BBE7AC4AD1688023DB010B43D360D9
:1096A0000020B3E7A84AD16880231B020B43D36094
:1096B0000020ABE7A44AD16880235B020B43D36050
:1096C0000020A3E7A04AD16880239B020B43D3600C
:1096D00000209BE79C4AD1688023DB020B43D360C8
:1096E000002093E7984AD16880231B030B43D36083
:1096F00000208BE7944AD16880235B030B43D3603F
:10970000002083E7904AD16880239B030B43D360FA
:1097100000207BE78C4AD1688023DB030B43D360B6
:10972000002073E7884AD16880231B040B43D36071
:1097300000206BE7844AD16880235B040B43D3602D
:10974000002063E7804AD16880239B040B43D360E9
:1097500000205BE77C4AD1688023DB040B43D360A5
:10976000002053E7784AD16880231B050B43D36060
:1097700000204BE7744AD16880235B050B43D3601C
:10978000002043E7704AD16880239B050B43D360D8
:1097900000203BE76C4AD1688023DB050B43D36094
:1097A000002033E7684A136901210B43136100204D
:1097B0002CE7654A136902210B431361002025E75A
:1097C000614A136904210B43136100201EE75E4ABE
:1097D000136908210B431361002017E75A4A1369E4
:1097E00010210B431361002010E7574A1369202111
:1097F0000B431361002009E7534A136940210B43CF
:109800001361002002E7504A136980210B43136162
:109810000020FBE64C4A116980235B000B43136177
:109820000020F3E6484A116980239B000B43136133
:109830000020EBE6444A11698023DB000B431361EF
:109840000020E3E6404A116980231B010B431361AA
:109850000020DBE63C4A116980235B010B43136166
:109860000020D3E6384A116980239B010B43136122
:109870000020CBE6344A11698023DB010B431361DE
:109880000020C3E6304A116980231B020B43136199
:109890000020BBE62C4A116980235B020B43136155
:1098A0000020B3E6284A116980239B020B43136111
:1098B0000020ABE6244A11698023DB020B431361CD
:1098C0000020A3E6204A116980231B030B43136188
:1098D00000209BE61C4A116980235B030B43136144
:1098E000002093E6184A116980239B030B43136100
:1098F00000208BE6144A11698023DB030B431361BC
:10990000002083E6104A116980231B040B43136176
:1099100000207BE60C4A137D01210B4313750020C8
:1099200074E6094A137D02210B43137500206DE68E
:10993000054A137D04210B431375002066E61720AA
:1099400064E6C0466C16011000B0004000B5432824
:1099500000D91BE28000D74B1B589F46D64B596855
:109960000220814359605A6802435A60002000BDBA
:10997000D14B59680420814359605A6802435A60A8
:109980000020F4E7CC4B59680820814359605A689D
:1099900002435A600020EAE7C74B59681020814310
:1099A00059605A6802435A600020E0E7C24B596888
:1099B0002020814359605A6802435A600020D6E74C
:1099C000BD4B59684020814359605A6802435A6030
:1099D0000020CCE7B84B59688020814359605A6811
:1099E00002435A600020C2E7B34B5A68B3490A40A9
:1099F0005A605968802252000A435A600020B6E734
:109A0000AD4B5A68AE490A405A60596880229200AC
:109A10000A435A600020AAE7A74B5A68A9490A409E
:109A20005A6059688022D2000A435A6000209EE79B
:109A3000A14B5A68A4490A405A6059688022120111
:109A40000A435A60002092E79B4B5A689F490A409C
:109A50005A605968802252010A435A60002086E702
:109A6000954B5A689A490A405A6059688022920177
:109A70000A435A6000207AE78F4B5A6895490A409A
:109A80005A6059688022D2010A435A6000206EE76A
:109A9000894B5A6890490A405A60596880221202DC
:109AA0000A435A60002062E7834B5A688B490A4098
:109AB0005A605968802252020A435A60002056E7D1
:109AC0007D4B5A6886490A405A6059688022920242
:109AD0000A435A6000204AE7774B5A6881490A4096
:109AE0005A6059688022D2020A435A6000203EE739
:109AF000714B5A687C490A405A60596880221203A7
:109B00000A435A60002032E76B4B5A6877490A4093
:109B10005A605968802252030A435A60002026E79F
:109B2000654B5A6872490A405A605968802292030C
:109B30000A435A6000201AE75F4B5A686D490A4091
:109B40005A6059688022D2030A435A6000200EE707
:109B5000594B5A6868490A405A6059688022120471
:109B60000A435A60002002E7534B5A6863490A408F
:109B70005A605968802252040A435A600020F6E66F
:109B80004D4B5A685E490A405A60596880229204D7
:109B90000A435A600020EAE6474B5A6859490A408E
:109BA0005A6059688022D2040A435A600020DEE6D7
:109BB000414B5A6854490A405A605968802212053C
:109BC0000A435A600020D2E63B4B5A684F490A408C
:109BD0005A605968802252050A435A600020C6E63E
:109BE000354B5A684A490A405A60596880229205A2
:109BF0000A435A600020BAE62F4B5A6845490A408A
:109C00005A6059688022D2050A435A600020AEE6A5
:109C1000294A53685B005B085360516880231B0628
:109C20000B4353600020A2E6234B1A8901218A438B
:109C30001A811A890A431A81002098E61E4B1A8954
:109C400002218A431A811A890A431A8100208EE66A
:109C5000194B1A8904218A431A811A890A431A81E5
:109C6000002084E6144B1A8908218A431A811A8934
:109C70000A431A8100207AE60F4B1A8910218A4381
:109C80001A811A890A431A81002070E60A4B1A8940
:109C900020218A431A811A890A431A81002066E624
:109CA000054B1A8940218A431A811A890A431A816D
:109CB00000205CE64417011000B00040FFFEFFFFEB
:109CC000FFFDFFFFFFFBFFFFFFF7FFFFFFEFFFFFC2
:109CD000FFDFFFFFFFBFFFFFFF7FFFFFFFFFFEFF75
:109CE000FFFFFDFFFFFFFBFFFFFFF7FFFFFFEFFFA2
:109CF000FFFFDFFFFFFFBFFFFFFF7FFFFFFFFFFE55
:109D0000FFFFFFFDFFFFFFFBFFFFFFF7FFFFFFEF81
:109D1000FFFFFFDFFFFFFFBF1D4B1A8980218A4332
:109D20001A811A890A431A81002020E6184B1A89E1
:109D300018490A401A811A89802149000A431A8168
:109D4000002014E6124B1A8913490A401A811A8915
:109D5000802189000A431A81002008E60C4B1A89E9
:109D60000E490A401A811A898021C9000A431A81C2
:109D70000020FCE5064B1A8909490A401A811A8914
:109D8000802109010A431A810020F0E51720EEE541
:109D900000B00040FFFEFFFFFFFDFFFFFFFBFFFFE6
:109DA000FFF7FFFF8023DB049C46604480000160D6
:109DB0007047000070B5214B1C6823681D7DEDB213
:109DC0006A0610D51E212222A1541A7E23318A430D
:109DD0001A762123E35C1B0703D52023E35C1B07D2
:109DE00004D423681B7CEB0704D470BD20002369D6
:109DF0009847F6E723681B7CDBB2626913706369DE
:109E000001336361A38B013B9BB2A383A38B9BB202
:109E1000002BEAD12133E35C5B07E6D52023E35C2A
:109E20005B07E2D500222223E2542268137E01213F
:109E30008B431376E36820009847D6E7383B011040
:109E400070B5224B1C6823681D79EDB2EA0714D463
:109E5000EB0607D52123E35CDB0703D52023E35C76
:109E6000DB0723D4AB0607D52123E35C9B0703D58F
:109E70002023E35C9B0725D470BDA2691178C9B289
:109E80000132A2611970E38B013B9BB2E383E38B48
:109E90009BB2002BDCD12268137A01218B43137211
:109EA0002268137A0F310B431372D1E70022222369
:109EB000E2542268137A10218B43137220006368E6
:109EC0009847CFE7A36820009847D5E7383B0110B3
:109ED00070B5214B5C6823681D7DEDB26A0610D514
:109EE0001E212222A1541A7E23318A431A7621236D
:109EF000E35C1B0703D52023E35C1B0704D4236822
:109F00001B7CEB0704D470BD200023699847F6E75B
:109F100023681B7CDBB26269137063690133636180
:109F2000A38B013B9BB2A383A38B9BB2002BEAD1F3
:109F30002133E35C5B07E6D52023E35C5B07E2D5D6
:109F400000222223E2542268137E01218B431376E0
:109F5000E36820009847D6E7383B011070B5224BE4
:109F60005C6823681D79EDB2EA0714D4EB0607D5C7
:109F70002123E35CDB0703D52023E35CDB0723D449
:109F8000AB0607D52123E35C9B0703D52023E35CC5
:109F90009B0725D470BDA2691178C9B20132A261B4
:109FA0001970E38B013B9BB2E383E38B9BB2002BE5
:109FB000DCD12268137A01218B4313722268137A51
:109FC0000F310B431372D1E700222223E25422689F
:109FD000137A10218B431372200063689847CFE7F0
:109FE000A36820009847D5E7383B0110E1235B02C6
:109FF00003600023037143718371C3710233836073
:10A000000322C26001320261013242618361C36195
:10A010000362436270470000F8B5CE46474680B5FC
:10A02000040017000160002343608360C360036184
:10A030004361836100228383C3832033C25401338D
:10A04000C2540133C254534B994237D0524B9942B8
:10A050004DD0FB7904229046002B01D10233984663
:10A060003E00083600254D4B9946318A01CEC0B2DC
:10A07000C8470135EDB24545F7D323681A7DD207AD
:10A0800004D501211A7C1A7D0A42FBD1002120222D
:10A090009954FB795A1E93415B013A7979790A43C5
:10A0A0001343BA79022A6CD0D1B2022938D9032AD3
:10A0B0006AD0042A38D10E22134335E00920384DE6
:10A0C000A8470A20A8470920364DA8470A20A847D4
:10A0D000354B1C6035491020354DA84735491120B6
:10A0E000A847354B01221A6001321A60B1E70B20F4
:10A0F0002B4DA8470C20A8470B202A4DA8470C2021
:10A10000A847294B5C602D491220294DA8472C49AE
:10A110001320A847284B04221A6004321A6098E7DB
:10A12000012A01D102221343202221688B543E6868
:10A13000244B984705003100234B984782B2000416
:10A14000000C7043281A3609B04220D9002301338D
:10A15000DBB2801BB042FAD80021282025682954A0
:10A1600001331B075B0FD20013439BB22268938419
:10A17000236819762368197200200CBC9046994612
:10A18000F8BD06221343CFE70A221343CCE700238E
:10A19000E2E7C046004000400050004075910010CA
:10A1A0004D990010F1950010383B0110B59D00103D
:10A1B000A59D0010419E001000E100E0D19E00101E
:10A1C0005D9F0010E5950010BDF3001002680120AE
:10A1D00013790342FCD011700020704702680120FF
:10A1E000137D0342FCD0137C0B700020704710B528
:10A1F0001723002A01D1180010BD0B33C45C1D3B8E
:10A20000052CF8D08283416105221D33C2540368B6
:10A21000043A1A760023EEE79300C3185960202110
:10A22000012393401A00435C13434354704710B515
:10A23000212401228A40035D13430355012900D0E4
:10A2400010BD0268137A1F310B431372F8E710B583
:10A2500001228A402124035D93430355012900D044
:10A2600010BD0268137A1F318B431372F8E70000A8
:10A27000F0B5C64600B50C00904600280FD1002A64
:10A2800011DD8F18094E0A4D306821002B68984760
:10A290000134BC42F8D1404604BC9046F0BD0123D5
:10A2A0005B429846F7E78046F5E7C046483B011019
:10A2B000403B0110F0B5C64600B50E001500013850
:10A2C000022810D8002A11D000240C4B98460C4FBD
:10A2D00043461868315D3B689847002808DB013425
:10A2E000A542F5D106E00124644203E0140001E038
:10A2F00001246442200004BC9046F0BD483B01109C
:10A30000443B01100300064A1268002A04D0044AA4
:10A310001068C318136070470249014A1160F6E7DC
:10A3200048250110505601100120404270478023FB
:10A330009B014B6000207047012070470020704750
:10A340000020704700207047C078002800D0E2202D
:10A350007047000010B50022064B1A7000780028E4
:10A3600000D110BD0448054B98470548054B984758
:10A37000E220F6E74C2501102C2101107105011097
:10A38000302101105504011010B50400C0780028D8
:10A3900000D110BD0448054B9847A2782188044895
:10A3A000044B9847E220F4E72C21011071050110BD
:10A3B0000C1F011055040110F0B583B00400837820
:10A3C000002B09D00D480E4B9847A1780D480E4B35
:10A3D0009847002003B0F0BD084F3800084EB04742
:10A3E0000A48094DA8473800B0472388E288A18869
:10A3F000208900900648A847EBE7C0462C210110B1
:10A40000710501101C1A011055040110A01901104A
:10A41000CC190110F8B505000188284B002404E090
:10A420000134E4B27C33082C31D01A898A42F7D146
:10A430001A005E321278062AF2D1AE78002E32D19E
:10A440001F48204B98472048204B98471B496301E1
:10A450001A1B92008A1810005E3008270770E878EF
:10A460001075AA781C1BA4000C1922760122184B27
:10A470001A7016E0124E3000124DA8471248134CC5
:10A48000A0473000A8471348A047E22609E0AB7870
:10A49000002BEFD00A480B4B98470F480B4B9847BF
:10A4A000E2263000F8BD054B6201111B89005918E6
:10A4B0000E760B005E3307221A70EBE74C3B01105F
:10A4C0002C21011071050110281E011055040110E6
:10A4D000B82401104C1E0110141E0110F0B5DE4608
:10A4E00057464E46C0B582B00700364C260014369B
:10A4F00025005E35F8239B009946A1440BE0019BA3
:10A500001B7D002B18D00123524613707C347C36FF
:10A510007C354C4543D0019422893B889A42F5D141
:10A52000AA462B78052BEAD0082BE8D0072B32D887
:10A530009A0025498A5897469B4653465A461A70B0
:10A540004A2200213000214B984712220021019815
:10A550001E4B9847019A5946917440231376D5E7CC
:10A56000FA78052A0ED0072B0CD000235246137020
:10A57000174B1B78002BC9D0154A1378013BDBB26F
:10A580001370C3E74A2200213000104B9847402344
:10A59000019A1376E9E7002352461370B6E70122C9
:10A5A0000C4B1A700C480D4B98473A88F9780C48B8
:10A5B0000C4B9847002002B01CBC91469A46A3461B
:10A5C000F0BDC0464C3B0110541801104504011069
:10A5D0002C3F0110B82401102C210110710501102D
:10A5E000341D01105504011010B5164B1B68132BB8
:10A5F0000CD91548154B98471548164B9847164BDC
:10A600009847E223002814D1180010BD0D4C226891
:10A6100093009B18DB009B18104A9B18292201000D
:10A6200018000F4B984723682368013323600023E9
:10A63000EAE70548054B98470A48064B9847E22346
:10A64000E2E7C046BC3901102C2101107105011050
:10A65000DC2001105504011051D30010F83F011007
:10A660003304011014210110F0B5DE464F46464672
:10A67000C0B5A6B00600857A002D00D0D9E0744898
:10A68000744FB84733797279B17970780290B078A5
:10A690000190F07800907048704CA0476C48B84723
:10A6A00031896F48A047122231006E486E4B98479F
:10A6B0003378002B00D07FE06C4B98460024049642
:10A6C0006B4B9B46E7B20594072204994046D84756
:10A6D00000281CD001347C239C46E044082CF1D196
:10A6E000644B1B78082B31D05E23604AD35C002B6F
:10A6F0003BD0614A012301271C001178002936D084
:10A700000137FFB201337C32082FF5D10FE05748F3
:10A71000059C6201131B9B00C3185E330221197054
:10A72000131B9B00C01812224E494F4B984707221B
:10A73000049952484E4B9847002832D17B01DB1BCD
:10A740009B004A4AD31805229A7437E04048414B8F
:10A750009847484B1978C9B24948404B98473089C7
:10A760001321484B9847E2256BE000240027630142
:10A770009846181B80003D4B9946484412223100F0
:10A78000394B98473B4A13780133DBB21370434689
:10A790001C1BA40023004B445E331A0002231370D9
:10A7A000C5E70322384B1A707B01DB1B9B002F4A45
:10A7B000D3180A229A7401E0022B05D00722002147
:10A7C0002E48324B98473CE0072231002B48284B5B
:10A7D00098470028F2D08022002106A82B4B9847EA
:10A7E0002B4F002306AD1C001034A4B239001A0010
:10A7F000531C9BB20878A85401311A00A342F7D128
:10A800007C37802BEFD106AA31000820214B9847D6
:10A81000051E03D10122204B1A7012E00C480D4B8B
:10A8200098471E480D4B984700221B4B1A70E22593
:10A8300007E00748074B9847B17A1948074B9847F4
:10A840000025280026B01CBC90469946A346F0BDC2
:10A850002C21011071050110CC1A011055040110B2
:10A86000101B0110C03F0110330401104C3B0110BC
:10A87000150401102C3F0110263C0110B0250110D9
:10A88000281B011071D300104C2501104504011044
:10A89000923B01109DD30010B8390110641B0110C8
:10A8A000881B011030B583B004000B480B4B984750
:10A8B000A388E28821882089019060880090084858
:10A8C000084DA8472088002300220121064CA047FC
:10A8D000002003B030BDC0462C21011071050110CD
:10A8E000501A01105504011091D30010F0B5D6464E
:10A8F0004F464646C0B584B0050006886A490A003E
:10A90000002303E001337C32082B20D01089B042B1
:10A91000F8D110005E3000780228F3D162485A0165
:10A92000D41AA40004195E3406222270F9321340AE
:10A930005A01D21A92008218127DD0070AD45A0105
:10A94000D21A9200584B9B185E3302221A70288844
:10A95000002319E0E8780028F1D05901C91A8900CC
:10A960001A31514BC9182888504B9847002859D0A4
:10A970004F48504B98475048504B9847E22051E081
:10A9800001337C31082B4CD0DEB20A898242F7D1E8
:10A990000A005E321278022AF2D15A01D21A9200CB
:10A9A000414CA4185E340322227001AA02211172C4
:10A9B000E978917001215170042010700020D0704E
:10A9C0009171D1710F3151711171072E2AD8FF2663
:10A9D0001E4073019B1B9B00334A9B5C022B27D0BC
:10A9E00073019B1B9B00304AD3181B7E402B24D045
:10A9F0007201921B920060322B4E9219288800231C
:10AA000001A92F4CA04700280CD001AB00229A705E
:10AA10005A702748274B98472A48284B9847E220E6
:10AA200000E0002004B01CBC90469946A246F0BD50
:10AA300001AB03229A71DA71D2E77701BF1BBB0029
:10AA400098461C0060341300A418424668329246AF
:10AA50009A441D4B99460F27C84738402070C84775
:10AA60003840A07401345445F6D1474670370E4B38
:10AA7000FF18154B99460F239846C8474346184080
:10AA800020700134A742F8D10F4B9847064A710154
:10AA90008B1B9B00D31870331880891B89005218B8
:10AAA0007A3210231370A3E74C3B011019D9001020
:10AAB0002C210110710501103C22011055040110D8
:10AAC0006DD700105422011085050110F0B5D6464F
:10AAD0004F464646C0B584B006000088494A002368
:10AAE00003E001337C32082B49D0DDB21189814269
:10AAF000F7D111005E3109780229F2D15A01D21A38
:10AB00009200404CA4185E340322227001AA1172F4
:10AB100001399170517000201070D0709171D17115
:10AB20000F3151711171072D2AD8FF251D406B017E
:10AB30005B1B9B00334A9B5C022B27D06B015B1B8A
:10AB40009B00304AD3181B7E402B24D06A01521B35
:10AB5000920060322B4D52193088002301A92A4CF3
:10AB6000A04700280CD001AB00229A705A702748E9
:10AB7000274B98472748284B9847E22000E00020C1
:10AB800004B01CBC90469946A246F0BD01AB03221E
:10AB90009A71DA71D2E76F017F1BBB0098461C00E7
:10ABA00060341300A4184246683292469A441B4B04
:10ABB00099460F27C84738402070C8473840A074CE
:10ABC0000134A245F6D1474670370E4BFF18134BA0
:10ABD00099460F239846C8474346184020700134D1
:10ABE000BC42F8D10D4B9847064A69014B1B9B00AC
:10ABF000D31870331880491B890052187A321023F9
:10AC00001370A3E74C3B01106DD700102C210110ED
:10AC100071050110B42001105504011085050110C3
:10AC2000F0B585B00500424B1A6802929A8802ABD3
:10AC30009A8001AC0422010020003E4B9847E37843
:10AC4000002B0BD080235B0001AA52889A4247D088
:10AC500001AB9B78012B63D0002057E03648374B7F
:10AC600098473748374B98470027374CFEB21E208D
:10AC7000A047C3B2002B0CD01A00303A092A23D9BE
:10AC8000052EF4D92C482D4B984730482D4B98472A
:10AC90002CE0294F3800294EB0472D48294CA047B9
:10ACA0003800B0472B48A047288813212A4B9847E3
:10ACB0000300E220002B29D01F48204B984727484B
:10ACC000204B9847E22021E06A4608215218D355CC
:10ACD000FF231840224B98470137062FD2D0C5E7F3
:10ACE0001548164B98471F48164B9847002402AE4C
:10ACF0001B4FA05DB8470134062CFAD101AB9978FF
:10AD0000288802AA184B9847002801D105B0F0BD49
:10AD100009480A4B984715480A4B98470020F5E721
:10AD20000548064B98471248064B98470020EDE728
:10AD300084190110330401102C2101107105011038
:10AD4000D01F011055040110E1BA0010A02001101D
:10AD5000F81F01100420011071D3001018200110F9
:10AD600089040110342001109DD800106C200110BE
:10AD700084200110F8B50600364B1B78002B04D157
:10AD80000088354B002200240FE00C2201003348DC
:10AD9000334B984700222F4B1A70002034E00134C7
:10ADA000E4B201327C33082C19D015001989814294
:10ADB000F5D119005E3109780129F0D9264A6B01D5
:10ADC0005D1BAD0055195E3506232B7063011B1BFF
:10ADD0009B00D2187032128873889A4215D0214F86
:10ADE0003800214EB0472148214DA8473800B047D0
:10ADF0002048A84763011C1BA400174B1C1920897D
:10AE000005211D4B9847E220F8BD6101091B89000F
:10AE10007231114BC918301D0822184B9847002871
:10AE2000DDD16201131B9B0060330B495B18141BBF
:10AE3000A4000C19217D30880122114CA047002864
:10AE4000E2D00848084B98470E48094B9847002025
:10AE5000DAE7C046B83901104C3B0110303F011011
:10AE6000330401102C21011071050110641D011023
:10AE7000550401109C1D011071D300101504011020
:10AE800095D90010F41D0110F8B50378002B0ED1F0
:10AE90003D4D0024461C3D4F102229003000B8478C
:10AEA000002852D00134E4B27C35082CF4D1384B60
:10AEB0001B78082B18D05E23364AD35C002B23D096
:10AEC000354A01231C00117800291ED001337C3241
:10AED000082BF7D14FE063011B1B9B002D4CE4189E
:10AEE0005E34022323703AE02C482D4B9847284BC0
:10AEF0001978C9B22B482C4B98472C4B1889132131
:10AF00002B4B9847E2203EE00024224E67013D1B78
:10AF1000AD007519122225492800264B98471C4A76
:10AF200013780133DBB213705E3502232B703C1BA8
:10AF3000A40034190833A3741DE000221E4B1A70BC
:10AF40001E481F4B984700201DE025006101091B8A
:10AF50008900104A52185E321378012BBBD90D4874
:10AF60006B015A1B920082180A2191741000122260
:10AF70000E49104B9847134B1B78002BDDD0002255
:10AF8000104B1A700020F8BD923B011015040110FF
:10AF90002C3F01104C3B0110263C01102C210110CC
:10AFA00071050110281B011055040110C03F01104C
:10AFB00071D3001033040110B8240110303F011088
:10AFC00075AD0010B839011010B582B001A8214B41
:10AFD0009847002835D1019B1A0F062A18D01E4821
:10AFE0001E4B9847012206211D481E4B98470023FF
:10AFF000019368461C4B984700281BD11648174BF5
:10B00000984700991948174B9847019802B010BD0E
:10B010001B011B0F012BE2D10F48104B98470199E0
:10B020000B041B0C0A01120F0132090F10480D4CC2
:10B03000A047DEE70848094B98470E48094B984758
:10B04000E3E70548054B98470B48064B9847002314
:10B050000193DAE7DDD300102C21011071050110F6
:10B060006C21011055040110F5D30010C821011006
:10B0700044210110E02101100822011010B5002A1E
:10B0800000D1D3E0062900D9D2E08900704B5B588B
:10B090009F4600236F4C07E0002800D1CAE001283A
:10B0A0000FD00133052B12D0990009598A42F3D0F1
:10B0B0000029F6D10028F4D19B0066495A5001219D
:10B0C0004EE09B000021634A9950013148E0002185
:10B0D00046E00023604C07E0002800D1ACE00128E6
:10B0E0000FD00133052B12D0990009598A42F3D0B1
:10B0F0000029F6D10028F4D19B0057495A5001216C
:10B100002EE09B000021544A9950013128E0002193
:10B1100026E00023514C07E0002800D18EE00128F2
:10B120000FD00133052B12D0990009598A42F3D070
:10B130000029F6D10028F4D19B0048495A5001213A
:10B140000EE09B000021454A9950013108E00021A2
:10B1500006E0434B1B689A4204D00021002B0BD021
:10B16000080010BD00286BD000210128F8D1002272
:10B170003B4B1A600131F3E70028F1D1384B1A60DC
:10B180000131EDE7374B1B689A4208D00021002BB4
:10B19000E6D10028E4D1334B1A600131E0E7002802
:10B1A00050D000210128DBD100222E4B1A60013142
:10B1B000D6E700232C4C06E0002845D001280FD00C
:10B1C0000133052B12D0990009598A42F4D0002985
:10B1D000F6D10028F4D19B0023495A500121BFE742
:10B1E0009B000021204A99500131B9E70021B7E7BF
:10B1F00000231E4C990009598A4206D000290ED01E
:10B200000133022BF6D10021AAE700281ED0012825
:10B21000F6D19B000021154A99500131A0E7002882
:10B22000EED19B0011495A50012199E7002197E77F
:10B23000002195E7012193E7012191E701218FE7A3
:10B2400001218DE701218BE7012189E7012187E7B2
:10B25000741801106C25011080250110942501102F
:10B26000AC250110A825011058250110502501100A
:10B27000F0B5DE4657464E464546E0B591B005006E
:10B28000072200218D488E4EB047122200218D48A2
:10B29000B04700248C4B1C60CD22920000218B48CB
:10B2A000B0478B4B1C708322920000218948B04725
:10B2B000894B9B468023DB009A461A0000215846A2
:10B2C000B047864B994680235B0198461A000021BF
:10B2D0004846B047824F202200213800B0475B46E5
:10B2E000BB605346FB604B463B6143467B617D48F8
:10B2F0007D4B98477D487E4B98477E4B1C605C6039
:10B300009C60DC601C617C4B1C605C609C60DC6051
:10B310001C617A4B1C605C609C60DC601C61784B3B
:10B320001C60784B1C60784B1C605C609C60DC602F
:10B330001C61764B1C605C60754CF8239B00994641
:10B34000A1445F4B98464027FF267C220021200025
:10B35000C04722005E32002313702776A374268133
:10B360007C34A145F1D16B4A13705D4C636023605E
:10B370005C485D4B984768485D4B98472000674B99
:10B38000984700280BD0574E3000574DA8476448C7
:10B39000574CA0473000A8476248A047FEE701236A
:10B3A0005B42069306A8604B9847002800D07EE0D9
:10B3B0004C484D4B984706995C484D4B98475C4A22
:10B3C000002100205B4CA0475B4A02210020A047DF
:10B3D00009215A485A4B9847002805D04148424B0A
:10B3E00098475848424B984704AB57490A00896828
:10B3F000049191890832998092799A7126220021CC
:10B4000006A82F4B9847002D0CD104A84F4B984706
:10B4100004AD002806D03348334B98474C48344B92
:10B42000984704AD2F48304B98472B796A79A97912
:10B430002878039068780290A8780190E8780090C6
:10B4400044482B4CA04706AC02232370424B638038
:10B450000722290007A8414B98470023E37623776A
:10B460006377A377E3772384638480239B00A3849B
:10B4700020003B4B9847002805D01A481A4B9847A4
:10B4800038481B4B98472800374B9847002805D071
:10B490001448154B98473548154B9847344B9847F7
:10B4A00011B03CBC90469946A246AB46F0BD0D4853
:10B4B0000D4B98472F480E4B9847FEE7B0250110DB
:10B4C00045040110C03F0110BC390110F83F0110C4
:10B4D000F43F01102C430110B8350110B8250110BC
:10B4E000D43F01102C21011071050110B01B011077
:10B4F000550401106C2501108025011094250110C0
:10B50000AC250110A8250110582501105025011067
:10B510004C3B01102C3F0110D01B0110D5CF001067
:10B52000E41B0110041C0110C5D30010401C0110C5
:10B53000941E01107DB00010E41E0110581C011073
:10B54000F1CE0010881C01108419011025CF0010C5
:10B55000A01C0110B81C0110983A0000330401101F
:10B5600049CF0010F01C011091D10010141D0110E2
:10B57000C9AF0010641C011030B50D4A002303E070
:10B5800001337C32082B11D01D0014005E34247866
:10B59000012CF5D914898442F2D15B015D1BAD0009
:10B5A000034B5D19AB7C0B70002000E0E22030BD46
:10B5B0004C3B011000B583B06B46D91D074B984733
:10B5C0000023002806D16B4607331B780A3B5842FC
:10B5D0004341DBB2180003B000BDC04679B500108E
:10B5E000F0B5C64600B507004588434B002200244D
:10B5F00005E00134E4B201327C33082C4FD01889C5
:10B60000A842F6D119005E3109780329F1D153011E
:10B610009E1AB600384B9B195E3305221A703D798D
:10B62000002D3FD13548364B98473648364B984722
:10B630003978314E63011A1B9200B21811753979AD
:10B640001A1B9200B21811761C1BA4002000363081
:10B6500080193900223110222C4B9846984720003F
:10B6600046308019390032311722C0471A34A019E8
:10B67000B91D1C22C04705225E23F2540BE01F4E69
:10B6800030001F4DA8471F481F4CA0473000A84757
:10B690001F48A047E225280004BC9046F0BD3B7936
:10B6A000002BECD063011B1B9B00134CE4185E3491
:10B6B000042323701148124B984739791548124BCF
:10B6C00098477888144B984700250028E3D00B480A
:10B6D0000B4B984711480C4B984778881321104B17
:10B6E0009847051ED7D00548054B98470D48064B8F
:10B6F0009847E225CFE7C0464C3B01102C210110B2
:10B7000071050110741F011055040110330401105C
:10B71000A01F0110441F0110B5B50010601F0110DB
:10B7200071D3001018200110F0B5CE46474680B501
:10B7300087B004000D003C2800D995E08300534AEF
:10B74000D3589F4684000026514F03E00436142E40
:10B7500000D195E0F359002BF8D01B59002BF5D000
:10B7600028009847F2E7143CE4B2A4000026494FB1
:10B7700003E00436142E00D182E0F359002BF8D0F8
:10B780001B59002BF5D028009847F2E71E3CE4B285
:10B79000A4000026404F02E00436142E70D0F35966
:10B7A000002BF9D01B59002BF6D028009847F3E75F
:10B7B000283CE4B2394B1B68002B61D0A400E3584D
:10B7C000002B5DD0080098475AE02E3CE4B2344B81
:10B7D0001B68002B54D0A400E358002B50D0080065
:10B7E00098474DE0373CE4B2A40000262D4F02E01C
:10B7F0000436142E44D0F359002BF9D01B59002BDA
:10B80000F6D028009847F3E7072398463B2807D04F
:10B810002700393FFFB2BF000026234B994617E0AF
:10B8200001AE142200213000204B98471023738072
:10B830006B469A1D02A930001D4B98478046E7E7EA
:10B840004246072A01D001A898470436082E17D08F
:10B850004B46F358002BF8D0DB59002BF5D03B2C8E
:10B86000EED028009847F0E7124E3000124DA8475E
:10B8700021001248124B98473000A8473000A847D3
:10B8800007B00CBC90469946F0BDC0469018011018
:10B890006C2501108025011094250110AC250110A4
:10B8A000A82501105825011050250110450401104C
:10B8B00095BB00102C21011071050110741E0110A0
:10B8C0005504011010B504000F4B1B78012B0ED04E
:10B8D00022000E490E480F4B984704000A4B1B7874
:10B8E000012B07D0002C08D0E224200010BD0A4B09
:10B8F0009847EDE7094B9847F4E7054B187803495B
:10B90000074B9847F1E7C046C03901102C4301109E
:10B91000F43F011031C70010D9C3001001C100105D
:10B9200029B7001010B582B001AC2000054B984734
:10B93000012323700023637021001620024B9847D7
:10B9400002B010BDDD9000102993001010B50E4B11
:10B950001B78012B0CD00D4B1B68002B07D00C4C17
:10B9600020789847012221000A480B4B984710BDC8
:10B970000222054B1A70054B1B68002BF7D10221E0
:10B980000448064B9847F2E7C1390110CC39011041
:10B99000C439011038450110EFA100104FA200106A
:10B9A00070B506000D00034C29003000A0470028A8
:10B9B000FAD170BDDDA1001070B506000D00034C7A
:10B9C00029003000A0470028FAD170BDCDA1001099
:10B9D00070B500210020194B9847194C2000194BD5
:10B9E0009847E1235B0223600223A3600322E26005
:10B9F0000132226101326261A361E3612362636209
:10BA0000114D124B1D60124A124B1A60124A134B11
:10BA10001A60220012492800124B9847124E3368D0
:10BA200098680021114CA047336858680021A0474E
:10BA300002220F4928000F4B984770BD61950010F6
:10BA40005C450110ED9F001038450110483B011086
:10BA5000B9B90010443B0110A1B90010403B0110DE
:10BA60000040004019A00010C8240110FD0501107D
:10BA70004DB9001019A20010F0B583B005000D4CAF
:10BA8000A047A0470C4FB8470C4E0D4A0D4BB0478E
:10BA900000900191FA2080006843B84702000B0033
:10BAA00000980199B047084B9847084B186003B0BD
:10BAB000F0BDC046E5950010A500011011F500107D
:10BAC000C7AEFE19EFD8093FD5F40010C8390110F0
:10BAD000024B1A68501E18607047C046C8390110E2
:10BAE00070B504000122114B1A70114B1B68002B1A
:10BAF00017D020000F4B98470F4900230B700122ED
:10BB00000E480F4B9847094C0E4D2378022B02D05C
:10BB1000A8470028F9D10022044B1A70064B187868
:10BB200070BD02210548084B9847E2E7C139011072
:10BB3000CC39011079BA0010C43901103845011010
:10BB4000EFA10010D1BA00102FA20010024B1A680A
:10BB5000026018607047C046D039011030B50B4BF9
:10BB60001C68002C11D025681D6000232360A16093
:10BB7000E280A080064B1A68002A02D11C6004E013
:10BB80001A001368002BFBD1146030BDD0390110AE
:10BB9000D4390110F0B5DE4600B582B0834601917C
:10BBA0001700154B1D68002D23D1144E1C000120D9
:10BBB0004042B04700902568002DF8D00E4B2A680F
:10BBC0001A60AB885A4613803A88EB88191C9BB2DE
:10BBD000934200D9111C8AB23980A9680198084B98
:10BBE00098472800074B9847009802B004BC93463A
:10BBF000F0BD00230093E1E7D439011049C10010E2
:10BC0000330401104DBB001070B50023064A1360C9
:10BC1000064A1360064C26007836064D2000A847D9
:10BC20000C34B442FAD170BDD0390110D4390110AE
:10BC3000D83901104DBB001010B504000378012B5A
:10BC400006D06378012B0DD0A378012B14D010BD42
:10BC50000E4B1B68002B00D09847FF2322689A43A5
:10BC60002260EEE7094B5B68002B00D09847084B39
:10BC7000226813402360E7E7044B9B68002B00D049
:10BC80009847044B226813402360E0E77448011092
:10BC9000FF00FFFFFFFF00FF70B50400134B1D689E
:10BCA000134B1B6898470C2C19D00C3CE388052BD0
:10BCB00015D0EB0714D40F4B1B68022098470E4B8E
:10BCC0001B6898470D4C0320236898470028FAD139
:10BCD0000B4B1B680230984701220A4B1A6070BD5B
:10BCE000094B1868094B1B689847F8E7ECB100400E
:10BCF000743A01108C3A0110843A0110903A011004
:10BD0000883A011020B00040643A01107C3A0110DA
:10BD100070B5040005001435094B1B6828009847CE
:10BD2000236A002B0AD0002401349B68002BFBD12E
:10BD3000044B1B6828009847200070BD0024F7E7DB
:10BD4000783A01107C3A011010B5064B064A196882
:10BD500011605A68054B1A60054B1B68002B00D018
:10BD6000984710BD844501100CB0004010B0004051
:10BD700064480110064A136806490B401360064ADE
:10BD8000136006490B68064803400B605360704718
:10BD90000CB00040C30FFEDF8445011010B000401E
:10BDA000C0E7FFFF70B5322200210D480D4B9847C8
:10BDB00000210B48012502244A00115482185378AF
:10BDC0002B43DBB2A343537001311929F4D1044B47
:10BDD0005A7818398A435A70DA788A43DA7070BD13
:10BDE000A44501104504011010B582B001AC20003B
:10BDF000064B98470123237021001F20044B9847CE
:10BE000000211F20034B984702B010BDDD900010A9
:10BE100029930010E9900010F8B5CE46474680B54A
:10BE2000514B1B68002B04D04F4B1B68012B00D1DA
:10BE300094E04E4B98474E4B98474E4B9847002402
:10BE40004D4B1C604D4D8023802212049146EA50D8
:10BE5000BFF34F8FBFF36F8F802252049046EA509A
:10BE6000BFF34F8FBFF36F8F454A464B1A60464B67
:10BE7000464A13604649474A1160474A1168474A93
:10BE80001160474A1168474A11604749474A1160A3
:10BE90004749484A1160484F484A3A604849494A28
:10BEA00011604949494A1160494E4A4A32604A493B
:10BEB0004A4A11604A494B4A11604B494B4A11604A
:10BEC0004B494C4A11604C494C4A11604C494D4A0F
:10BED00011604D494D4A11604D494E4A116028206C
:10BEE00098474D4B1A684D4B1A604D4A4D4B1A609E
:10BEF0004D4A4E4B1A604E4A4E4B1A604E4A4F4BBB
:10BF00001A604F4A4F4B1A604F4A504B1A60504AC2
:10BF1000504B1A60A022920000214F484F4B984787
:10BF2000802292004E4B1A804E4B98474B462B6016
:10BF300043462B604C4B1C603B684C4A1A6033688C
:10BF40004B4A1A604B4B1C605C609C600122064BA4
:10BF50001A6000200CBC90469946F8BD0122024BA5
:10BF60001A600120F6E7C046803A0110A5BD001016
:10BF700075BD0010E9BD0010583A011000E100E065
:10BF8000D707000058480110BD0700009045011078
:10BF900051BC01005C480110BC000410603A011063
:10BFA000B80004105C3A01109FB901008C450110E3
:10BFB000DBB901009C4501106C4801103C000410E5
:10BFC000C01F0410A0450110C41F041068480110D0
:10BFD00060480110D41F0410D81F041098450110A8
:10BFE000B4840010944501101C82001070480110A8
:10BFF0002082001084480110E9CB01008C3A011026
:10C000008FCD0100883A0110A3CE0100843A0110BF
:10C01000CFCB0100903A0110E4000410743A0110F3
:10C02000E99F01006C3A0110DDDB01007C3A011050
:10C030005BDC0100783A0110EC050410643A011051
:10C04000E3D50100543A0110200C0410503A0110BD
:10C05000099F0100683A0110D845011045040110FC
:10C060008048011009BC00106448011049BD00104F
:10C0700039BC0010744801100923012801D91800A7
:10C080007047024B1B6818600023F8E794450110C5
:10C09000054B1A680523012A01D018007047034B8D
:10C0A00018600023F9E7C046803A0110583A0110A1
:10C0B00070B504000E4B1B68002B02D040889847D7
:10C0C0006080E388A288618820880A4D2D68A8478F
:10C0D0000500E288002A07D021000831064B984766
:10C0E0002800064B984770BD044B9847FBE7C046B5
:10C0F000603A01106C3A01103304011099BC001031
:10C1000010B5044B1B68044B1B6880200002984745
:10C11000082010BDECB100408C45011010B5074B54
:10C120001868074B9847002801D0002010BD054B28
:10C130001B688020C0019847F7E7C046503A0110BD
:10C1400011BD00109C450110F0B5DE4657464E4625
:10C150004546E0B587B0441EE31C0BD90023994641
:10C16000002825D0002400239B468A4B98468A4FFE
:10C170005E466BE00D22002102A8884B98473323CE
:10C1800002AA1370303B5370937002331371937192
:10C190001472230A5372230C9372240ED472012357
:10C1A00013730D2110007E4B984701239946D9E760
:10C1B000784B18687B4B9847D0239B46002800D1CA
:10C1C00093E0CFE70D22002102A8744B9847332358
:10C1D00002AA1370303B5370937002331371937142
:10C1E0000D2110006E4B984746E06F4B1B885B1982
:10C1F000A0229200934202DD803A6B4B1A806A4B78
:10C200009A461E88694BF61821000C312A0030002E
:10C21000674B98472A0031005846664B984753466B
:10C220001B88ED1853461D800024022607E069890B
:10C230000831614B1B685D489847002403265F4B1B
:10C2400018685F4B1B689847002C4AD05B494346EF
:10C2500018683B689847002841D1584B1C68A38850
:10C260009A46CD239B009A4500D186E023899B46C0
:10C2700065894B46002BA5D1A023DB009A45B4D09D
:10C280004D4B1B68002B26D04C4B1A689388CD2150
:10C2900089008B4200D174E04A4C444D25602B70DC
:10C2A0001B0A6B701089484B1B6898472871000A5D
:10C2B00068712068414B1A68D28842801D686B897A
:10C2C000C380083020606A89002AB0D029000C3170
:10C2D000374B9847ABE73D4B98470024AFE707261D
:10C2E000B2E7B3464B46002B07D1584607B03CBCDB
:10C2F00090469946A246AB46F0BD264B1D68002DE0
:10C3000012D02C6A14239C46AC44634660460093CA
:10C310002F4B1B689847002C2AD00026CD27BF0042
:10C32000274B9946200014E000231C6A002CDCD027
:10C3300014230093264B1B6814209847EDE7002E2A
:10C340000ED08368B3604B461B689847B0680028DE
:10C350000ED003689B88BB42F1D006008068F6E7E8
:10C3600083682B62164B1B6801939847286AEEE797
:10C37000184B1B6800989847B7E70F4B1B68002BBA
:10C38000A9D04B460124002B00D158E70024D02629
:10C3900055E7C046503A0110543A011045040110C7
:10C3A000B1C0001011BD001080480110D845011027
:10C3B000330401105DBB0010583A0110943A01108B
:10C3C000683A0110703A01105C3A01101DC100106A
:10C3D000783A01107C3A011010B50C4B18680C4BE0
:10C3E000984700280BDD0B4B1B688020C001984745
:10C3F000094B1B68802000029847002010BD064BA7
:10C400001B68C02000029847F7E7C046503A011069
:10C4100011BD00108C4501109C450110002803D06F
:10C42000024B1860002070470920FCE764480110A7
:10C43000044B1B68002B03D01B680360002070476F
:10C440000720FCE770480110044B1B68002B03D049
:10C450001B680360002070470720FCE78448011038
:10C4600010B5024B9847024B984710BDA5BD001070
:10C47000D1B9001070B584B0404B9847404B9847F5
:10C48000404B9847404E3000404DA8474048414CF3
:10C49000A0470020404B9847404B98470222404B12
:10C4A0001A603000A8473F48A04700223E4B1A7050
:10C4B0003E4B1C78230019331A2B33DD3248334BA3
:10C4C00098473B48334B98473A483B4B98473B4B40
:10C4D0001B78364A11783A4A3A483B4CA047002824
:10C4E00038D12948294B984738482A4B98472C4B34
:10C4F000187800230293364B0193C823DB00009386
:10C50000002300220321334CA047041E2ED11E48D5
:10C510001E4B984730481F4B9847002116202F4B41
:10C5200098471DE0274B1A321A55621CD2B2FF21E0
:10C530009954A01CC0B2C01819222949294B984708
:10C540001B341A4B1C701048104B98472648114B4F
:10C550009847B9E70C480D4B984724480D4B98472E
:10C5600001256D42224C2800A047FCE70648074BF6
:10C57000984721001F48074B9847F1E719BE001064
:10C5800001C10010D1B900102C210110710501105A
:10C590009C2201105504011071B2001025B9001041
:10C5A000BC240110C4220110983A011088480110DF
:10C5B0008423011061C400101DC40010A84801109C
:10C5C0008C480110AC480110E5D100102C2301105B
:10C5D0008F02000009D200106C230110E9900010B6
:10C5E0008022011033040110F42201100C230110E9
:10C5F000C5B800104C23011070B5124D2C68002CEA
:10C6000013D02668E2602E6000250F4A238113684C
:10C610002560A080E180AB4202D1146070BD1300A0
:10C620001A68002AFBD11C60F8E7C4B2002CF5D1CF
:10C63000064CE26001222381054BA080E1801A7044
:10C64000ECE7C0469C3A0110A03A0110A43A011050
:10C65000B43A011000230F4A70B513600E4A012648
:10C6600013701A000D4C0009000123600818814264
:10C670000BD1002B00D022600122094B52425A807C
:10C680001A8000229A60DA6070BD0A6033000A00E6
:10C690001031ECE7A03A0110B43A01109C3A0110B5
:10C6A000C848011010B51A4B0400080011005A8840
:10C6B000A24208D19A88824205D1012252425A8070
:10C6C000D960012010BD1A88A24209D19A888242FD
:10C6D00006D1012252421A8099600E4B9847F0E72A
:10C6E0000D4B9C4210D00D4B9C4207D00C4B0020B0
:10C6F0009C42E7D108000B4B9847E2E700220A4B27
:10C70000984743425841DDE70022084BF8E7C0460E
:10C71000C8480110C5DA0010130E0000150E000005
:10C72000010E00000DDF0010F9E00010D5E100104F
:10C730000023F0B50E0085B0029003920370002331
:10C740000193039BAA4C039D01332BD02368002B3C
:10C750002BD1019BD02B12D1029B1B783C2B01D1FA
:10C76000A44B9847029B1B783C2B00D1BBE2039B58
:10C77000013B033300D8BBE2019805B0F0BD03983C
:10C780009D4B984701900228E0D13B23029A1370F9
:10C79000002301931E00DFE72800974B9847019084
:10C7A0000228F2D02368002BF6D0019BD02BD3D0E7
:10C7B000019B032B01D1002301932368002B03D19C
:10C7C000019B002BC8D170E01A68DD682260DA880E
:10C7D00000928A4A9C88116813601960884B1B7804
:10C7E000012B0FD1874A874BD18890881B89D2684B
:10C7F000854FB8471022854B002182489847002377
:10C800007F4A1370019B002BA6D1814B9C4208D11B
:10C81000009BA34200D072E23923029A1370356064
:10C820009AE77C4B9C42B0D0009BBB2B25D1BB2C04
:10C8300023D16B469B88B380AA786B78E878120284
:10C84000134329796A79B07073481BB233808342ED
:10C8500007DC724A93420CDA714A934209D00023F2
:10C8600008E070488342FAD113020B43B3803823A7
:10C8700000E03723029A13706EE76B4B9C4200D1A5
:10C880008FE100D989E0694B9C4200D108E23CD895
:10C89000093B9C4200D1F1E116D8654B9C4200D186
:10C8A00083E104D83927BC4264D0002762E0614BA1
:10C8B0009C4200D1C2E1604B9C42F6D1310028007D
:10C8C0005E4B98472D2755E05D4B9C4200D1BBE164
:10C8D0000DD85C4B9C4200D1C9E15B4B9C42E4D13A
:10C8E000320029000098594B9847142742E0584BD2
:10C8F0009C4200D1AFE1574B9C42D6D13200290077
:10C900000098554B9847172734E0544B9C4200D170
:10C91000C0E122D8524B9C4200D1C8E111D8514B02
:10C920009C4200D19EE1504B9C42BED12900320076
:10C9300000984E4B9847B18807004D4B3088984778
:10C9400018E04C4B9C4200D19DE14B4B9C42ACD13A
:10C95000320029000098494B38E0494B9C4200D1F5
:10C9600013E10CD8083B9C4200D108E1454B3A2723
:10C970009C429AD1029B1F7000230193ECE6D123C5
:10C980001B019C4200D106E13F4B9C428DD13100FE
:10C9900028003E4B98471027ECE73D4B9C4200D1C6
:10C9A00022E100D9A3E03B4B9C4200D141E100D9F8
:10C9B0007CE0394B9C4200D104E109D8033B9C4206
:10C9C00000D072E7320029000098344B9847DAE033
:10C9D000334B9C4200D1EEE0324B9C4200D064E7E6
:10C9E000320029000098304B98473C27C2E7C046E8
:10C9F000A03A01101DC1001049C100109C3A01105D
:10CA0000B43A0110A43A0110F9C500104504011010
:10CA1000FFFF0000FEFF00001E2000001D200000A0
:10CA2000030C00001F2000001C0D0000090C00007A
:10CA30003B030000020A0000030A00003DD700107B
:10CA4000050C0000020C0000040C0000D9EF0010DF
:10CA5000060C0000070C0000A1F00010170C0000ED
:10CA6000120C00000C0C00000D0C0000D5F00010A2
:10CA70008DEF0010130C0000150C0000D1D6001033
:10CA8000080D0000010D0000150D0000C1ED0010A3
:10CA90001B0E00000F0E0000030E000069DD0010E9
:10CAA000060E00000A0E0000E9E50010974B9C42BC
:10CAB00000D18DE00CD8964B9C4200D1B4E0954B50
:10CAC0009C4200D0F1E6320029000098924B7DE7AD
:10CAD000924B9C4200D180E0914B9C4200D0E4E616
:10CAE0003200290000988F4B98470F2742E78E4B62
:10CAF0009C4200D18CE01FD88C4B9C4200D18DE031
:10CB00000DD88B4B9C4276D08A4B9C4200D0CCE611
:10CB1000320029000098884B984713272AE7874B53
:10CB20009C426FD0864B9C4200D0BEE6310028006C
:10CB3000844B98472B271DE7834B9C4200D1C4E0D0
:10CB40000ED8824B9C4200D1B8E0814B9C4200D071
:10CB5000ABE63200290000987E4B9847312709E761
:10CB60007D4B9C4200D1B7E07C4B9C4200D09CE6C0
:10CB70003200290000987A4B98473327FAE63100B3
:10CB80002800784B98470700F4E631002800764BE0
:10CB900098470527EEE631002800744B9847012797
:10CBA000E8E631002800724BECE731002800714BB9
:10CBB00098470327DEE63200290000986E4B98471D
:10CBC0001227D7E6310028006C4B98470727D1E69B
:10CBD0003200290000986A4BF8E6320029000098DC
:10CBE000684B98470E27C5E6320029000098664B2F
:10CBF00098470C27BEE6320029000098634B9847FF
:10CC00001127B7E631002800614B98472927B1E684
:10CC1000310028005F4B98472A27ABE631002800F7
:10CC20005D4B98472827A5E63200290000985B4B0A
:10CC3000CCE6320029000098594BC7E631002800A5
:10CC4000584B98472C2795E6320029000098564B00
:10CC5000984715278EE6320029000098534B9847D5
:10CC6000162787E6320029000098514BAEE63200C5
:10CC7000290000984F4B984724277BE63200290073
:10CC800000984D4BA2E6009B31001B0A3380280020
:10CC90004A4B77E7009A31002800494B9847A4E6B1
:10CCA000320029000098474B9847192762E6320066
:10CCB00029000098444B984721275BE63200290061
:10CCC0000098424B9847342754E6320029000098D8
:10CCD0003F4B984735274DE63200290000983D4BE1
:10CCE0009847362746E6019B002B00D127E53EE515
:10CCF000019BD02B00D13FE5374B98473CE5009B8B
:10CD0000019FBB2B00D0D0E534E6C046150E0000D5
:10CD1000110E0000130E0000D5E10010170E0000E8
:10CD2000190E000029E50010270E0000210E00005A
:10CD30001C0E00001D0E0000D9E60010220E00009F
:10CD4000250E00005FE70010051B0000011B00001E
:10CD5000031B000073F30010061B0000081B0000FB
:10CD60008BF300102DEA001011EA0010BDEC00104A
:10CD7000E5ED001003EE00105DE6001045E0001048
:10CD8000F9E000106DE4001011E6001027E6001035
:10CD9000F1E600101FE7001035E700108DE50010E8
:10CDA000B7E500100DD7001015F000105DF0001071
:10CDB000D5F00010ADF1001035F1001065D600106F
:10CDC00095D60010BDF10010FDF1001069F30010C0
:10CDD00079F300107FF3001001DB0010F7B500229B
:10CDE000134B01901C68134B9446186811002300E4
:10CDF000002B09D16346002B01D00D4B1C60002A8B
:10CE000001D00C4B1860F7BD9E881D683700019E4D
:10CE1000B74206D1002907D00D6018600122180022
:10CE20000B0019002B00E3E701222C009446F4E7E5
:10CE3000A03A01109C3A0110F7B50022174B944616
:10CE40001D68174B11001C682B000190002B09D1A5
:10CE50006346002B01D0114B1D60002A01D0104BFE
:10CE60001C60F7BDD8881E68070A00903800019F33
:10CE7000B8420BD1FD27009838400C2806D1002974
:10CE800007D00E601C6001221C000B00190033004B
:10CE9000DCE7012235009446F4E7C046A03A0110D1
:10CEA0009C3A011070B50E4C1D0023007233160021
:10CEB0001970002907D00B4B984204D00A000100DA
:10CEC0001800094B984773342570002D06D0074889
:10CED000864203D02A003100034B984770BDC046FC
:10CEE0006A4901109E49011033040110BD49011027
:10CEF00030B5CF23002810D04A1E1F2A0DD8084A6B
:10CF00001300AA33198000231C00C55CAC34013324
:10CF10001555DCB2A142F7D80023180030BDC04639
:10CF20006A49011010B50400CF20002C06D0044B34
:10CF30002100CE389847034B1B79237010BDC046A3
:10CF4000FDE800106A490110F0B5040087B0CF2554
:10CF5000002836D00379032B33D8007811350F28F9
:10CF60002FD88022A68C9200113D964229D8E57FC9
:10CF7000A27FAD0152011543E27E1F001543627F7F
:10CF800012011543227F92001543EDB2012B05D00B
:10CF9000002B02D00227032B00D900272300049680
:10CFA000668C0B330396268C621D61880195029670
:10CFB000054D0097A8472622050021000348044B91
:10CFC0009847280007B0F0BDF1E700106A4901104A
:10CFD00033040110F0B587B003AF55490B22554B10
:10CFE0000400380098470522534B40261A8000233E
:10CFF000524A1360524A1370524A1370524B984768
:10D00000524B9847524B9847524B9847002C13D09D
:10D01000A368002B10D02369002B0DD020680028B6
:10D0200002D16368002B07D14B4B616898474B4B8B
:10D030009847012803D9E226300007B0F0BD4848E0
:10D04000484B98470028F6D1474B207F984720004F
:10D05000464B9847C825A168E068454B98476D0046
:10D060006B46DC1C2A0001A92000424B9847061E93
:10D07000E2D123783A2BF3D13F4B9847061EDBD100
:10D08000012203003D495242581812334281902B2D
:10D09000FAD13B4C813B23703A4B3B4963800023E0
:10D0A00023715A1C12011A430233DBB20A70013198
:10D0B000202BF6D1E133FF33A38423000025733303
:10D0C0001D70230072331D70230076331D70230002
:10D0D000CC331D802200A023D0325B0013802200BD
:10D0E000CE3213802300D2331D80FA222300520057
:10D0F000D4331A802300D6331D702000234BE576ED
:10D1000025776577A577E57725846584984723009B
:10D11000072274331A7023000432AA331A802B00BA
:10D120007A5DAC330135E2540B2DF8D184E7C0466B
:10D13000A423011033040110D8480110484E0110F7
:10D14000D03A0110C02401100DF2001021D40010BB
:10D150009DD4001001D70010D9D4001019BE0010C2
:10D16000CDD9001091C0001079C000107DDA0010F8
:10D1700055C6001031C7001081E70010DA480110D1
:10D180006A490110983A00007549011049CF001012
:10D1900070B5451C0400CF20002D17D02378032B39
:10D1A00014D8012B02D16378002B0FD0062229005E
:10D1B000074B08489847237807480371074B98475F
:10D1C0002378002B02D12800054B984770BDC0463C
:10D1D000330401106F4901106A49011049CF001052
:10D1E00005DB001010B5002802D1E224002A07D088
:10D1F000CF241F2904D81F2B02D8024CA04700249B
:10D20000200010BDA5CE0010F0B593B01F0018ABE4
:10D210001D8819AB1B88040010931AAB1B780F9163
:10D2200016001193CF20012C12D1109B002B11D18D
:10D230008023CF20DB019D420CD81F2D0CD8042366
:10D2400022009A4306D0A31ECF20012B06D801E06E
:10D25000042CEDD913B0F0BD9F2DF4D9012C3FD192
:10D26000CF20002EF6D0002F3CD1002D44D1324BE0
:10D27000202573331B780D93304B98470E9044E074
:10D280000E20341E2AD12C4A072674321278002A26
:10D2900000D01600119A10990B9264224A4392B260
:10D2A0000A92274A0E9909920D9A0892254A0792E6
:10D2B000214A72321278009406920F9A05970492CE
:10D2C000039602950195204A204CA047C2E70F2003
:10D2D000D7E700220D920C20D3E70D20741CD2E773
:10D2E000002F09D00F9BCF20013B012BB2D9012C7D
:10D2F00002D1002D00D120350F4B73331B780D93D5
:10D300000E4B98470E90002E0ED03378601E002BE7
:10D3100003D10328E1D8002302E001230328DCD84D
:10D3200002F038F8AED9D7D5601E0328F3D9330000
:10D330000D203400A7E7C0466A490110A5EC001093
:10D34000BD4901109E490110983A000079EB001088
:10D3500010B5054B9847041E03D1D120034B0001A3
:10D360009847200010BDC0469DE90010DDCD00109B
:10D3700070B50400044B0800210098470500034BDA
:10D3800020009847280070BDF9DF001039CE00104A
:10D3900010B5014CA04710BD39E5001010B5CF23E2
:10D3A00000280AD0002908D0002A06D00C78022CC8
:10D3B00003D1034B013198470023180010BDC0462C
:10D3C00049ED001010B5010020230122014C024854
:10D3D000A04710BD85DB001000B00040044B10B525
:10D3E00098470023072800D1E233180010BDC0463B
:10D3F00031C40010044B10B598470023072800D112
:10D40000E233180010BDC04649C400100238C3B250
:10D4100003200E2B01D8014AD05C7047AF230110C6
:10D420000022014B1A807047B63A0110F0B5002176
:10D4300004000C260B4B1A680B4B1D68914201DD52
:10D440000020F0BD8818C30F1B1830005B10584334
:10D4500028180788A74201D25A1EEFE7A742F0D941
:10D46000591CEBE7CC3A0110B83A011037B5094B1B
:10D47000050008000C009847002809D08268002A9F
:10D4800006D083882900009220000022024CA04789
:10D4900037BDC0462DD4001071EE00100023074A9E
:10D4A0001370074A1360074A1360074A1360074A5C
:10D4B0001360074A1360074A13607047D03A01109F
:10D4C000C83A0110CC3A0110BC3A0110C03A011020
:10D4D000B83A0110C43A011070B504000D000028DC
:10D4E00016D0002914D00A000B4B002198470B4B93
:10D4F0000B4A1C606B0813600A4AE31813600A4A5F
:10D5000064191360032303349C43084B043C1C60E0
:10D510000022074B1A6070BD45040110C43A011087
:10D52000C83A0110BC3A0110C03A0110B83A0110D3
:10D53000CC3A0110F8B50E4B06000D0014009847C8
:10D54000031E0ED08768002F0BD0C288CF20A242C6
:10D5500006D39C80220029003800064B9847002003
:10D56000F8BD2A0021003000034B9847F8E7C04679
:10D570002DD400103304011021F2001070B50C4BB3
:10D5800004000E001500984700280BD08368002B7C
:10D5900008D083882B8082888168064B30009847AA
:10D5A000002070BD320029002000034B9847F8E7A7
:10D5B0002DD4001033040110C9F20010F0B585B06D
:10D5C0000400019100291AD14788204B3800984760
:10D5D000031E1CD08168002919D0E088A288DD884C
:10D5E0001218CF20AA4210DC9888824200DD9A806F
:10D5F000A088E28808182100154B083198476088F8
:10D600002188019A134B9847002005B0F0BD02AB6A
:10D610009D1D0023104E2B802A0031680F4B3800CF
:10D62000984721003368A088E28818180831084B11
:10D630009847E288A3889B182A88934200DD2B80B4
:10D640002A8860883168064B9847D8E72DD40010A7
:10D6500033040110EDEE0010C42401107DD500103C
:10D6600035D5001070B50C00074B98476588074BFF
:10D670002800984783782720DB0704D420882900D6
:10D68000034B98473C2070BD1FEE00102DD40010B6
:10D690006DD4001070B50D000A4B140098472D880A
:10D6A000094B28009847210A031E084C06D0002386
:10D6B000C28889B22800A0473C2070BD89B20122EF
:10D6C000F8E7C04665EE00102DD4001039EF0010C9
:10D6D00010B51400074B9847074B60889847022302
:10D6E00081782320194003D12000044B9847202043
:10D6F00010BDC0462DEE00102DD40010BDD5001079
:10D700000A22014B1A707047C024011010B504782A
:10D710000C70C2788378120213434B8042790379EC
:10D72000120213438B80002C04D1034A1378013377
:10D73000DBB2137010BDC046C0240110030010B549
:10D7400040781A78000202430A80D8789A7800025A
:10D7500002434A8058791A79000202438A80881D60
:10D76000991D014B984710BD33040110F0B50C0012
:10D770001F218BB0079302ABC9180F230B70404BCE
:10D7800005001600984707000120072F08D8002C35
:10D7900015D112235F433B4BFB5C834202D0CF2069
:10D7A0000BB0F0BD049503940294019400942300FF
:10D7B000220021002000344DA8470020F0E7227904
:10D7C000062AECD96379102BE9D89A42E7D8237A54
:10D7D000042BE4D8A379072BE1D8E379072BDED813
:10D7E000A378002B06D0002ED9D01C223100274868
:10D7F000274B9847079B002B05D02648190010227D
:10D800009A30234B98476378A2789B0013431222E7
:10D8100057431C4ADBB2BA5C002A16D1A0794207F2
:10D8200002D5079A002ABAD0C20701D5002EB6D079
:10D83000267AE27821780396E6790190029660795B
:10D84000154C00902800A047B7E7012AA7D1E0793E
:10D85000420702D5079A002AA1D0C20701D5002E9F
:10D860009DD0E27821780495257A02900395A079DD
:10D8700001906079044C00900120A0479DE7C046CC
:10D8800001DD0010DA480110C5E20010E84901107E
:10D89000330401106A4901107DE00010F0B585B035
:10D8A00005000C001600002110226846184B98470E
:10D8B0000121002E01D131006E46002C1DD101271F
:10D8C000701D2300013E0A3402780138303A7A4351
:10D8D00067439B188642F7D16A46684613701A0A56
:10D8E00042701A0C1B0E8270C37004202B006A4613
:10D8F000084CA047002005B0F0BDCF20012CFAD184
:10D9000000236846F25CC2540133102BF9D1ECE7D6
:10D910004504011051E30010F7B5CF2307000C00B8
:10D920001500002907D0052A05D8012631009140AD
:10D930003322114201D11800FEBDA27E073A092A06
:10D94000F9D80F4B00213800984733000728F2D848
:10D95000122358430B4BC65CE023002EEBD1210071
:10D960001C22094B094898472300228A0195A17E71
:10D970001233009138002100054CA0473300DAE74C
:10D9800001DD0010DA48011033040110E8490110EC
:10D99000B1E3001073B5CF24002B08D0002A0CD0BF
:10D9A000052904D8012533268D40354201D12000B8
:10D9B00076BD9D7E073D092DF9D89C7E0094024CD2
:10D9C000A0470024F3E7C0468DE40010F7B50388B4
:10D9D00001000193C4888688002C0FD12200180012
:10D9E00031001B4B9847021E05D1030031000198FE
:10D9F000184CA047F7BD184B9847FBE7174D184A3E
:10DA00002B681268E318934201D900232B60154F4D
:10DA10002A683B68083198182200134B98473B68E6
:10DA20002A6831009A180198094B984700280CD1B0
:10DA30002B683A683100D21801982300054DA84799
:10DA4000064B1A6814191C60D4E7034B9847F7E794
:10DA5000A5C60010F9C500101DC10010444A0110F0
:10DA6000DC3A0110D83A01103304011010B5024B12
:10DA70009847002010BDC046B1C00010802210B5EC
:10DA8000920004000021084B084898470022084BE8
:10DA90001A60084A084B1A60084B22691A606269CA
:10DAA000074B1A6010BDC04645040110484C0110D8
:10DAB000444A0110484A0110C4240110D83A011008
:10DAC000DC3A01100122014B1A607047D43A011070
:10DAD00070B5012504006D42074B1A68012A05D173
:10DAE0001968012906D100221A6070BD2800034B75
:10DAF0009847F1E72270F8E7D43A011049C10010C5
:10DB0000704700000F23F7B500250327154C164E6C
:10DB10002370164B01001A881B8822711B0A63713F
:10DB20000622134B13486770A770E570A571E57165
:10DB3000B560F5609847104B0E2133800623200016
:10DB4000A3710E4BB78098476B46DC1DDD7120003A
:10DB50000B4B98472378D020AB4201D1B36818789B
:10DB6000FEBDC046484C0110C8480110D8480110FD
:10DB700033040110504C0110290300006DDA00102D
:10DB8000D1DA0010F0B585B00191224900930E88DA
:10DB90000988214B090A5971010A5972694617000F
:10DBA0000322002409781D4D18721973000C1C49BA
:10DBB0005A709A709872AA80000A92181E71D872D0
:10DBC0009A711C70DC70DC715F73298018000E2163
:10DBD000144BAC60EC60984702ABDE1DDC7130008A
:10DBE000114B98473378A34203D0D034200005B0BE
:10DBF000F0BDA968009B0C78082B05D13A000231D2
:10DC000001980A4B9847F1E7009B202BEED1BA0010
:10DC10000231F5E7D8480110484C0110C8480110FE
:10DC2000190300006DDA0010D1DA0010330401107E
:10DC300000232B4A70B59360D3600B22294C2270CD
:10DC4000033262702932A270274AE170118812886B
:10DC50002171120A6271A371E3712072637201284B
:10DC60001CD0984203D0022820D00A210DE01F4B7F
:10DC70001F49AA331D881F482B0AE3722A001E4B36
:10DC8000A572984729000C3189B20B00083BA3719B
:10DC90001B12E3712000194B984770BD134B0C21E8
:10DCA000CC331B88A3721B0AE372EEE70F4B1221E1
:10DCB0001A00CE321288A272120AE2721A00D03210
:10DCC00012882273120A62731A00D2321288D43375
:10DCD000A273120AE2731B8823741B0A6374D4E7CD
:10DCE000C8480110484C0110D84801106A49011079
:10DCF000164A0110544C0110330401106DDA001063
:10DD00000C4BF0B5082298420DD0002312260A4C85
:10DD100035005D432F197F89DAB2874205D100298A
:10DD200001D02B5D0B701000F0BD0133082BEFD13B
:10DD30001A00F8E7FFFF0000DA4801100023122163
:10DD400030B5074C074D0A005A4312195289D8B210
:10DD5000AA4203D00133082BF5D1180030BDC046CC
:10DD6000DA480110FFFF0000F7B50B780500581ED8
:10DD700014004E780F285BD801F016FB0A465A5A59
:10DD800046465A4D2F1427085A5A3B413C20FEBDA7
:10DD90003C20002EFBD000232D0A15809670D370F6
:10DDA0003538F4E76B46DF1D01232D0A3B7039003F
:10DDB0002800204B9847072803D83B783C20002BAD
:10DDC000E5D0658026710A20E1E73C20002EDED0F8
:10DDD0002D0A158096702D38D9E73C20002ED6D01C
:10DDE00000232D0A158096709380D38013813438D8
:10DDF000CDE73C20002ECAD016721238C7E73C206F
:10DE0000002EC4D01671F8E73C20002EBFD09370CE
:10DE1000D6702A38BBE73C20002EB8D02D0A1670E9
:10DE20005580101D00210522034B98471320AEE7B3
:10DE30000020ACE701DD001045040110F0B500251D
:10DE400085B01E000AAB1B78019202930BAB1B78C6
:10DE50000F0003930CAB1A88254B264C9D60DD60A8
:10DE6000022323700C336370A370234BE2701A8873
:10DE70001B8822711B0A6371010010221F4B20486E
:10DE8000A571E57198473B0A63763B0CA3761B0AA4
:10DE9000E37601991022194B1A48277698472300F8
:10DEA0002C331E702300320A2D331A702200330CDB
:10DEB0002E32137022001B0A2F3213706A46230081
:10DEC000127A30331A7023006A4631331D702300F2
:10DED000127B32331A70230033331D702C2334210C
:10DEE000A3712000084B9847280005B0F0BDC0463C
:10DEF000C8480110484C0110D848011033040110E3
:10DF0000504C0110644C01106DDA0010F0B50400A3
:10DF10008FB010220021324B0AA8984763782278EC
:10DF20001B021A436B4605922E4D9B8A2421AB851A
:10DF3000E378A2781B021A436B4606921B8BEB8593
:10DF4000637922791B021A436B4607929B8B2B86BF
:10DF5000E379A2791B021A436B4608926A461B8C2E
:10DF600052186B86637A210009932B00127877335D
:10DF700078351A700A3106221B4B280098471B4B34
:10DF800098471B4E070007281BD812206946784384
:10DF9000227C898A33185981325424216A465218C6
:10DFA000127802305A706A46128B30189A816A468B
:10DFB000928B2900DA816A46128C1A8206220A4B59
:10DFC0009847122300215F43F61973890AAA029326
:10DFD000019100910B001000064CA0470FB0F0BD5E
:10DFE000450401106A490110330401103DDD0010A1
:10DFF000DA4801103DDE001010B5002404220D4B5C
:10E000009C60DC600C4B1A700A325A709A700B4A92
:10E01000D970118812881971120A5A7101221A7264
:10E020009218DC7158729A710A211800044B9847B3
:10E03000200010BDC8480110484C0110D8480110FC
:10E040006DDA001010B50400407823780002184300
:10E050000880A3780A00CB700021064B9170984786
:10E06000072806D8122343430348C01801235B4204
:10E07000438110BD01DD0010DA480110F0B5002425
:10E0800085B00193122305000AA807780BA806782B
:10E090000CA8007802900DA80078039012488460C4
:10E0A000C460124803700E23C570114D4370837015
:10E0B0002B882D8803716B461B79C471C3726B4624
:10E0C0001B7A2D0A83736B461B7B0A3445710472DD
:10E0D0004172827207734673C373082310218371E0
:10E0E000044B984705B0F0BDC8480110484C0110DA
:10E0F000D84801106DDA0010F8B5030008780C005C
:10E1000002381500052841D801F04EF911034030BE
:10E1100042490A20002A09D01B0A53808B7800212B
:10E12000137146222848294B98470A20F8BD0A2037
:10E13000002AFBD0244C1B0A53808B780027100048
:10E1400021001370224E17712E3117223230B04742
:10E150002800210010221E312230B047A11C1C22B1
:10E16000A81DB047462239002000DCE7164D0231D9
:10E1700028001022164E2E30B047280021003F30D4
:10E1800012310622B047237E3E352B700020CDE7AA
:10E190000D48023110220E4B1E309847F6E70A4D0B
:10E1A000023110220A4EA81CB04728002100E27C50
:10E1B000A37C120213431430143108226B82B0473F
:10E1C000237F2B77E2E7C046E03A011045040110B7
:10E1D0003304011070B50E7803004978072E5CD81F
:10E1E000300001F0E1F8045A5A5A0B5A20200B2053
:10E1F000002A02D01B0A1380917070BD002A01D141
:10E200000D20FAE71B0A1380002902D10123937025
:10E21000F6E700239370022901D1D370F0E70129BA
:10E22000EED1D170ECE700222049214C8A60CA600F
:10E2300014211B0AE3701F4B217006396170A17015
:10E2400019881B8820001B0A637101231A4D217154
:10E25000A271E271267263720A302900072E1ED164
:10E260007E311032154EB0472B00290020008E332E
:10E270001B889031A37608221B0A1C30E376B04736
:10E28000252198352A78631DDA770B000025083B95
:10E29000A37120000A4BE57198470020ADE79A3141
:10E2A0001022064B98471A21EFE7C046C8480110D4
:10E2B000484C0110D84801106A490110330401107C
:10E2C0006DDA0010F0B585B007000AA806780BA833
:10E2D0000078002401900CA80078142502900DA865
:10E2E0000078009303900EA8008884461448846048
:10E2F000C46014480570063D457085706546C5705C
:10E30000114DC4712B882D8803716B461B782D0A23
:10E3100003736B461B790134457104724772817235
:10E32000C272467383736B461B7A1121C3736B46AB
:10E330001B7B037409238371044B984705B0F0BD20
:10E34000C8480110484C0110D84801106DDA00107F
:10E3500070B50D001100002214260F4CA260E2607F
:10E360000E4CE3700E4B2670063E6670A6701E883B
:10E370001B88A2711B0A6371E27120721032094B73
:10E38000094826716572984712231A21A37120004B
:10E39000064B984770BDC046C8480110484C011054
:10E3A000D848011033040110524C01106DDA0010EE
:10E3B000F0B51026002507008DB0069312AB1B7830
:10E3C0000591079313AB1C7804920021320008A832
:10E3D0001D4B984708AA019500942B00290002972D
:10E3E00010001A4CA0471A4B1A4C9D60DD60162392
:10E3F0002370083B6370A370174BA5711A881B88A4
:10E4000022711B0A63710B23E57165723200059955
:10E41000124D13482372E770A8476B461B7C069980
:10E42000A376049B08221B0A0E48E376A8476A4697
:10E43000127F631DDA771D232521A37120000A4B6B
:10E4400098470DB0F0BDC046450401103DDE0010F8
:10E45000C8480110484C0110D8480110330401107D
:10E46000524C0110644C01106DDA001010B5000A16
:10E47000108048780B78000203435380101D02314E
:10E480000822014B984710BD33040110F0B5102647
:10E49000002507000C008DB0069312AB1B78059287
:10E4A00007933200002108A8174B984708AA009448
:10E4B0002B002900029701951000144CA047144B23
:10E4C000144C9D60DD60182323700A3B6370A370B9
:10E4D000114B06991A881B8822711B0A63716B46BF
:10E4E0001B7D320023720D480D4BE770A571E5715D
:10E4F00098476B461B7F1A21637612232000A37175
:10E50000084B98470DB0F0BD450401103DDE0010EA
:10E51000C8480110484C0110D8480110514C011056
:10E52000330401106DDA00100B78000AD370002359
:10E53000108093707047000070B5002405000F48EC
:10E5400010268460C4600E48C3721B0A037305233F
:10E55000C5700C4D0670023E467086702E882D8860
:10E5600001722D0A42728371120A0D21064B067147
:10E570004571C47182729847200070BDC84801106F
:10E58000484C0110D84801106DDA00100023000A31
:10E590001080937048780B78000203439380C8780A
:10E5A0008B7800020343D38048790B790002034340
:10E5B000138108207047000A108048780B78000209
:10E5C00003435380C8788B780002034393804879D3
:10E5D0000B7900020343D380C8798B79000203438F
:10E5E00013810920704700000B0010B5010A11804B
:10E5F00018789070002804D1034BAA331B88002B95
:10E6000001D0024B984710BD6A49011031DC00105F
:10E61000000A10800B78012118009B0808400B406D
:10E62000D07013717047000A108048780B78000290
:10E6300018438B781B041843CB781B0603435360A5
:10E6400048790B79000218438B791B041843CB7966
:10E650001B060343936000207047000010B51400B0
:10E66000000A10800B78937088784A780002024381
:10E67000A280012B11D0002B02D0022B14D010BD90
:10E6800020000B79CA781B021A43E280114B083034
:10E69000053198470223A370F1E70A79CB7812027B
:10E6A0001343E3800523F6E70A79CB78120213437C
:10E6B00023818A794B7912021343E3800A7ACB795A
:10E6C00012021343A3818A7A4B7A120213436381A5
:10E6D0000623E0E733040110002310B5000A13708D
:10E6E0005080024B101D0522984710BD33040110C5
:10E6F00042780378120213430B80C27883781202A7
:10E7000013434B8042790379120213438B80C27901
:10E71000837912021343CB8000230B727047427837
:10E720000378120213430B80C278837812021343DA
:10E730004B80704742780378120213430B80C278F3
:10E740008378120213434B804279037912021343F8
:10E750008B80C279837912021343CB807047427851
:10E760000378120213430B80C2788378120213439A
:10E770004B8042790379120213438B80704700006B
:10E7800073B5164A16481188128802230171D021E8
:10E79000120A002542710122124C037009010B3349
:10E7A000437083702180A38009210F4B0272827114
:10E7B000A560E560C570C57198476B46DE1DDD71CB
:10E7C00030000A4B98473378D020AB4205D1A3687C
:10E7D000E2201A78012A00D1587876BDD848011075
:10E7E000484C0110C84801106DDA0010D1DA001051
:10E7F000F0B589B003930EAB1B78384C04930FAB84
:10E800001B781700059310AB1B880025009311ABF4
:10E810001B88334E019312AB1B88A1720293042311
:10E820002370093363700D23A3702E4B090A1A88D5
:10E830001B8822711B0A6371032360722372E172C9
:10E84000E5703900A571E57106222748B560F560CD
:10E85000264FB847102203992548B8476A46127CCC
:10E86000E31CDA776A46127D231DDA776A4612784E
:10E87000631DDA77009BA21D1B0AD3776A461279C3
:10E88000E31DDA772200019B08321B0AD3776A4620
:10E890002300127A28331A702200029B29321B0AA5
:10E8A0001370D0231B0133800D23B38022232A2130
:10E8B000A37120000F4B984706ABDC1DDD712000D3
:10E8C0000D4B98472378D020AB4205D1B368E220A6
:10E8D0001A78032A00D1587809B0F0BD484C0110CD
:10E8E000C8480110D8480110544C011033040110DD
:10E8F0005A4C01106DDA0010D1DA0010F7B50F0094
:10E90000CF2601283AD8002938D006221C4B0025F2
:10E910001A700D225A700D221A499A700A880988B5
:10E92000194C090AA560E560DD701A7159719D7175
:10E93000DD71012822D106221A720D221349987125
:10E9400061800839218018000921114BA280984765
:10E950006B46DE1DDD7130000E4B98473378D026B4
:10E96000AB420BD1A3685E78002E07D1E4680A4B56
:10E97000781C062221009847A3793B703000FEBD29
:10E98000484C0110D8480110C8480110080D00007B
:10E990006DDA0010D1DA00103304011073B5174A94
:10E9A0001748118812880323120A42710222027248
:10E9B000D0220025134C03700A3343708370A38068
:10E9C0000C3B12010171837109210F4B2280A5605C
:10E9D000E560C570C57198476B46DE1DDD7130007E
:10E9E0000A4B98473078A84201D0D02076BDA36862
:10E9F0005B78442BFAD01800F8E7C046D8480110DD
:10EA0000484C0110C84801106DDA0010D1DA00102E
:10EA100070B505000C00481C06222900024B9847DF
:10EA2000AB790020237070BD33040110F7B5457831
:10EA300000780C000C380B2800D991E000F0B4FCF1
:10EA400051191919900606575790900E0023452D1D
:10EA500000D02B00237002231800FEBD3C23002DA4
:10EA6000FAD00D70481C3F4B10220021984710230C
:10EA7000F2E7002D32D16B463B4ED91DB08D3B4B9A
:10EA800098472B000728E7D81233584338490B180A
:10EA90005A89023022815F78A57227709A894118BD
:10EAA000A281DA89E2811B8A06222382631C180074
:10EAB000304B9847002F0BD0A3793F221900013526
:10EAC0009143C02904D03F352B405D425D41023562
:10EAD00001235B422570B3850733BDE70D70042326
:10EAE000BAE70023452D00D02B002370F7E71E4F17
:10EAF0000021B88D1D4B012698477642072828D85B
:10EB0000122358431A49BE850B185A8902302281B4
:10EB10005E78411826709A89A281DA89E2811B8A7F
:10EB200006222382631C1800124B984700239E4242
:10EB30000BD0A2793F33110099433E3BC02904D04A
:10EB40003F331A405342534102332370A5720623C8
:10EB500082E7122200212000024B98472681F5E728
:10EB6000002379E7450401106A49011001DD001016
:10EB7000DA48011033040110F0B589B003930EABED
:10EB8000029102CB08AA1B880D26009310AB1B88AC
:10EB90003C4C9C4611AB1B78049312AB1B7805933D
:10EBA00013AB1B78069314AB1B78019319239B18A6
:10EBB000DD7F18AB1F8819AB1B7807930023A36078
:10EBC000E360314C26706670A670304EE370328878
:10EBD00036882271360A6671A371E371A372E372FB
:10EBE0006B461B786A462373009B127A1B0A637379
:10EBF0006346A37363461B0AE3736B461B7C207258
:10EC00000E3862722374012826D8002903D0062208
:10EC10001F48204B98476B461B7BE3752200A523BA
:10EC200050321370220051321370230022005233ED
:10EC30001F7053323B0A13706A462300127F54330D
:10EC40001A704D230025A37155212000124BE57148
:10EC50009847280009B0F0BD6B461B7D019A63748C
:10EC60006B461B7E1599A3746B461B79094E0B48A6
:10EC7000E374B04723002A003033179908481D7009
:10EC8000B047CBE7C8480110484C0110D8480110E4
:10EC9000594C0110330401106DDA00105C4C011066
:10ECA000794C0110044B01201B79022B03D0033B4C
:10ECB00058425841400070476A490110F7B54378FF
:10ECC000050001936B460C001B79067806224B70F9
:10ECD000881C1C4FA91CB847200029002A7A08303C
:10ECE000C27709312835B8472B785AB2002A01DAA1
:10ECF0000133DBB22200283213700023019A9A42BA
:10ED00000BD0E2793F33110099433E3BC02904D038
:10ED10003F331A405342534102336370042E07D8E5
:10ED2000300000F041FB0306080A0C0000232370AA
:10ED3000F7BD0123FBE70223F9E70323F7E70523E8
:10ED4000F5E7C04633040110F8B500231700154A53
:10ED500005009360D3601422134C144E2270073ABE
:10ED60006270A270124AE370108812882071120A31
:10ED70006271A371E371657217332D0106220D488C
:10ED80002372B0472A0039000B48B04729001031E0
:10ED90000B00083BA3711B12E3712000074B98473F
:10EDA000F8BDC046C8480110484C0110330401109A
:10EDB000D8480110524C0110584C01106DDA001067
:10EDC00070B5040008000D00054E21000622113028
:10EDD000B047681CA11D1022B04700232B7070BDE6
:10EDE0003304011042780378120213431B2B06D11F
:10EDF0000279437900201B02134308704B803C20AA
:10EE000070474278037812021A4383781B041A432E
:10EE1000C3781B0613434B6003790B70704742782D
:10EE20000378120213434B8070470000130010B5A3
:10EE3000000A108048780A78000202435A80C87895
:10EE40008A78000202439A8048790A7900020243D4
:10EE5000DA80083318000631014B984710BDC046D0
:10EE60003304011042780378120213430B80704779
:10EE700070B51D0000231426164CA360E360164CE9
:10EE8000E17016492670083E6670A6700E880988E3
:10EE9000A371090AE37120722B0A000A26716171BD
:10EEA0006072A572E3722273002D0FD02A000499BC
:10EEB0000B480C4B0D359847A9B20B00083BA371CA
:10EEC0001B12E3712000084B984770BD65730E213B
:10EED000F3E7C046C8480110484C0110D84801105B
:10EEE000554C0110330401106DDA001070B5002488
:10EEF0000D4B16259C60DC600C4B9A720322D97076
:10EF00000B491D700A3D5D709D700D88098818724F
:10EF1000090A000A1D715971DC7158729A710B212E
:10EF20001800044B984770BDC8480110484C0110A8
:10EF3000D84801106DDA001070B500250F4C182666
:10EF4000A560E5600E4C23730523E1700D49267022
:10EF50000C3E6670A6700E8809882072090A000AA5
:10EF600061716072A272A371120A0D212000064B1A
:10EF70002671E571E272984770BDC046C84801101D
:10EF8000484C0110D84801106DDA0010002210B56D
:10EF90000E240D4B9A60DA600C4BD8700C481C7034
:10EFA000023C5C709C7004880088DA71197202322D
:10EFB000000A090A1C71587159729A710A211800C5
:10EFC000044B984710BDC046C8480110484C01107A
:10EFD000D84801106DDA001070B51500000A1080D5
:10EFE0004A780B78120213436B80CA788B7812022E
:10EFF0001343AB800E79054B30000C00984732006C
:10F00000A871611DE81D024B984770BD0DD400101A
:10F010003304011070B51500000A10804A780B788F
:10F02000120213436B80CA788B7812021343AB80B1
:10F030004A790B7912021343EB808E79054B30002D
:10F040000C009847287228003200E11D024B09305D
:10F05000984770BD0DD400103304011070B5150031
:10F06000000A10804A780B78120213436B80CA782A
:10F070008B7812021343AB800B790C00AB714E7985
:10F08000054B30009847E87128003200A11D034B62
:10F090000830984770BDC0460DD4001033040110ED
:10F0A00070B51400000A10804A780B7812021343DE
:10F0B00063808E78054B30000D009847E91C207165
:10F0C0003200601D024B984770BDC0460DD4001041
:10F0D0003304011010B50C781300122C12D1000A61
:10F0E0001080C8788A78000202435A804C790879E7
:10F0F0002402204398800631981D0D4B98471C220E
:10F10000100010BD0022132CFAD1000A1880C87814
:10F110008A78000202435A804C79087924022043FD
:10F1200098800631981D024B98471D22E8E7C0469B
:10F130003304011000B5000A1080087890704B78F5
:10F140000138D37013282CD800F02EF90C0A0A0AC3
:10F150000A0A0A2121211F111111112B2B13192920
:10F16000182000BD3C20002BFBD01738F9E72620E3
:10F17000F7E70D4A1E201368013B1360F1E70A4AC6
:10F180001F201368013B1360EBE71A20E9E73C20DE
:10F19000002BE6D08221890053542338E1E7222056
:10F1A000DFE70020DDE7C046484E0110000A10806E
:10F1B00048780B780002034353807047000A10B56B
:10F1C00013001080822200209200985448780A7818
:10F1D000000202435A80C8788A7800020243DA802B
:10F1E00048790A79000202439A80083318000631F0
:10F1F000014B984710BDC04633040110000A10802F
:10F2000048780B7800020343538070470023024A7A
:10F210001380024A13807047283B0110263B0110DF
:10F22000F7B50B270C230E00110000221E4C1F4DBA
:10F230006770A7701E4F23703B883F8820723F0A7B
:10F24000000AAA60EA60E27023716771A271E2713C
:10F250006072914223D0330AE37232001548164B94
:10F26000A672984731000C3189B2144B20002B80D4
:10F270000B23AB800B00083BA3711B12E371104BF7
:10F2800098476B46DC1D0023200023700D4B9847E8
:10F290002378D020002B01D1AB689878FEBDA172F5
:10F2A000E1720C21E1E7C046484C0110C84801104A
:10F2B000D8480110544C0110330401100D0B00000C
:10F2C0006DDA0010D1DA0010F0B506000B2385B01E
:10F2D000002500910A2101921C4A1D4817881288B6
:10F2E0001C4C120A4271320A437083704272A3802E
:10F2F000194A093B8371194B017007712280A5607F
:10F30000E560C570C5710672984702ABDF1DDD71FF
:10F310003800134B98473B78D020AB4213D1A168FB
:10F3200001984C780B7824021C43CB788A781B0216
:10F330001A43009B1A800D790A4B05319847E22049
:10F34000A64200D1280005B0F0BDC046D848011043
:10F35000484C0110C84801100B0B00006DDA00107A
:10F36000D1DA0010330401100B7813704B7853700E
:10F3700070470B78137070470B7813707047C8781C
:10F380008B7800020343138070470B7813704B781F
:10F390005370704702B47146490849000956490044
:10F3A0008E4402BC7047C04602B471464908490009
:10F3B000095C49008E4402BC7047C04600224308E5
:10F3C0008B4274D303098B425FD3030A8B4244D32D
:10F3D000030B8B4228D3030C8B420DD3FF2209026F
:10F3E00012BA030C8B4202D31212090265D0030B2E
:10F3F0008B4219D300E0090AC30B8B4201D3CB0324
:10F40000C01A5241830B8B4201D38B03C01A524165
:10F41000430B8B4201D34B03C01A5241030B8B4267
:10F4200001D30B03C01A5241C30A8B4201D3CB0252
:10F43000C01A5241830A8B4201D38B02C01A524137
:10F44000430A8B4201D34B02C01A5241030A8B423A
:10F4500001D30B02C01A5241CDD2C3098B4201D352
:10F46000CB01C01A524183098B4201D38B01C01AD0
:10F47000524143098B4201D34B01C01A5241030947
:10F480008B4201D30B01C01A5241C3088B4201D3F6
:10F49000CB00C01A524183088B4201D38B00C01AA3
:10F4A000524143088B4201D34B00C01A5241411ACA
:10F4B00000D20146524110467047FFE701B50020D7
:10F4C00000F006F802BDC0460029F7D076E7704785
:10F4D0007047C04670B500220C4B04000D0000F0D0
:10F4E0004DFE002804D12000290000F0A7FD70BDCA
:10F4F000064B00222000290000F08AFA00F09EFD51
:10F5000080231B069C466044F1E7C0460000E041B2
:10F51000F0B557464546DE464E46E0B50C039846E4
:10F520004E00230B87B0070092469B46760DCD0F09
:10F53000002E6BD06D4B9E4235D080245B46420F2F
:10F540002404DB0014431C43C3009946684BA346C4
:10F550009C46002300276644029343461C035A003E
:10F56000DB0F5046240B520D984600D176E05F4BDE
:10F570009A426DD08023410F1B040B435C49E40089
:10F580008C461C43C300002062444146B6186940C3
:10F59000721C0191944607430F2F00D9B0E0554AE1
:10F5A000BF00D25997465B460343994600D087E097
:10F5B00000239B46023308270293CEE7424601927E
:10F5C000022867D0032800D10EE2012800D062E1B2
:10F5D000002300240022994601990140CDB2002168
:10F5E00012030B0D120B1B051343434A2405134052
:10F5F0001C436400ED0764082C434846210007B013
:10F600003CBC90469946A246AB46F0BD03439946A2
:10F610004FD05B46002B00D189E1584600F0B8FD81
:10F6200003000B3B1C2B00DD7AE11D22D31A3A00AC
:10F6300001005C46DA4008398C4013008F402343B8
:10F640009B46B94600232D4E0027361A029384E7C5
:10F65000534623432AD10024022096E753462343EE
:10F6600020D0002C00D157E1200000F091FD0300D4
:10F670000B3B1C2B00DD49E11D21CB1A514602003A
:10F68000D9405346083A944093400C431B4A121AFF
:10F6900000207AE70125019B144C1D400023002225
:10F6A00099469CE70024002201206EE75346032080
:10F6B0006BE700239B4601330427002602934CE7A7
:10F6C000032381460C27029347E78022002300256D
:10F6D00012039946054C82E75C464B4602986FE759
:10F6E0005C464B46019502986AE7C046FF0700005A
:10F6F00001FCFFFFC0230110FFFF0F800DFCFFFF87
:10F700004A464946170C1A0C1B041B0C0804190026
:10F71000000C41431500884619007D437943039549
:10F7200089462900150045434D44029545462D0C58
:10F73000AA46029D5544A94506D98A468021490218
:10F740008946CA4451460391290C04914146090453
:10F750002D04090C88462900250C24044144240C5E
:10F760000591210041438846210079438A46684338
:10F77000414650448146080C48446F43824503D9B2
:10F780008021490289464F44010C89463900494489
:10F79000029141460F0404993F0C88460004C019A9
:10F7A00080444146049159460F0C0904090C8846CF
:10F7B00059438A4639005143894641464A43514696
:10F7C000090C8B467B43D2185A44934203D98023B9
:10F7D0005B029B46D94451460904090C8A464146BE
:10F7E00061437C43130C12044B445244A1468A46A5
:10F7F0003C0041466C434D4351464D440F0C7D192E
:10F80000A94503D98021490288464444049F0399AD
:10F81000B84641448B468345804141428846514623
:10F8200008042F04000C3F18584602991018894606
:10F83000904292414F44BA46524299469346C2443E
:10F84000D144CB448F42BF41C245894199459B4138
:10F85000934592417F4249422D0C52420F435B42F5
:10F8600013437F19FF185B463C19DB0D059A6402B0
:10F870001C43430213435D1EAB415A46C00D034374
:10F8800052021343E20156D501205A0803401343A4
:10F89000E207134364085A48604400284DDD5A07C4
:10F8A00009D00F221A40042A05D01A1D9A429B4102
:10F8B0005B42E4181300E20104D58020514AC000E5
:10F8C00014406044504A904200DDE3E60125DB0825
:10F8D00062071A436402019B9146220B4405640DA2
:10F8E0001D407CE6802259461203114208D0144282
:10F8F00006D122431203120B45469946434C6EE64D
:10F900005B461A431203120B404C68E60300544650
:10F91000283B9C400023B9E600F03AFC2030A6E6E4
:10F920000300283B9F400023BB4699468AE600F02F
:10F930002FFC203074E6B446ADE701252A1A382A98
:10F9400006DD019B00241D4000230022994646E667
:10F950001F2A21DC20252000AD1A1E00AB40A84044
:10F96000D6405D1EAB4130431843D440430709D015
:10F970000F230340042B05D00300181D98429B4120
:10F980005B42E418230221D50125019B01241D407F
:10F9900000230022994622E61F2521006D42281AE5
:10F9A000C1400800202A1DD05F35AA1A9440234385
:10F9B0005C1EA341072503431D400022002D09D0F2
:10F9C0000F2200241A401800042AD6D1030065072C
:10F9D0006402220BDB082B4301259946019B00247E
:10F9E0001D40FCE50024E2E78022012512032243AA
:10F9F00001991203120B0D409946044CEFE5C046E5
:10FA0000FF030000FFFFFFFEFE070000FF070000EE
:10FA1000F0B54646D6464F460C03C0B5CD0F4E0056
:10FA2000610A440F0C43C1005800400D84468A46C9
:10FA30000F001903500F490A0143C648760DA84626
:10FA4000DB0FD200844500D1D8E001204340AB4217
:10FA500000D1A6E06046351A002D00DC05E1002843
:10FA600010D10B00134300D1D7E06B1E002B00D048
:10FA70004BE153469F1ABA458041641A4042241A0A
:10FA800001261EE0B34B9E4248D080231B0419433D
:10FA9000382D00DD19E11F2D00DD4CE120230F0082
:10FAA0005B1B10009A409F40E840531E9A41E9407A
:10FAB000074317435346DF1B611ABA45A44164420A
:10FAC0000C1B230200D4C5E06402650A002D00D19E
:10FAD000F6E0280000F05CFB0300083B1F2B00DD74
:10FAE000E9E020223C00D21A9D40D4409F402543AB
:10FAF0009E4200DDDBE09E1B731C1F2B00DD0AE134
:10FB000020223800D21A290097402C009140D8407A
:10FB10007A1E9741DC40002601430F437B0709D042
:10FB20000F233B40042B05D03B1DBB42BF417F420E
:10FB3000E4191F00230225D5864B01369E4200D1D1
:10FB4000AFE0854B01251C4043466207FF08640275
:10FB500076051743240B760D1D4000212403230B4B
:10FB60000C0D7E4A24051C431440330523435B00DF
:10FB7000ED075B082B43380019001CBC90469946E2
:10FB8000A246F0BD012543466207FF081743E4087B
:10FB90001D40704B9E4236D024037605240B760D13
:10FBA000DBE76346F31A002B00DC94E06046002894
:10FBB00035D068488642B1D080273F043943382B7E
:10FBC00000DCFDE00A43170000217A1E97415744EC
:10FBD00057458041091944420C1923023AD55D4B1F
:10FBE00001369E4200D14BE101225B4B1C407B0859
:10FBF00017401F43E207174364088FE708001043CC
:10FC000000D024E721E723003B4300D1B9E1802263
:10FC1000120314432403240B9FE72E007EE7080001
:10FC2000104300D1CAE0581E8446002800D0E7E007
:10FC3000524452458041641840422418170001265E
:10FC4000230207D50226CFE764462C4300D1B3E157
:10FC50002C0067467B0700D062E76307FF081F435D
:10FC600001254346E4081D4093E7002D78D1751C1B
:10FC70006D056D0D012D00DCF2E05046801A8245C5
:10FC8000BF41651A7F42ED1B8446280200D48CE0F8
:10FC90005046171ABA4292410C1B5542651B9846B2
:10FCA00014E70125434600241D40002755E72A4C50
:10FCB000F61A2C4032E73D0028388540002717E728
:10FCC000380000F065FA203006E70A4317000021EB
:10FCD0007A1E9741EEE6002B00D0E5E0731C9C46AF
:10FCE0005B055B0D012B00DC9FE01A4B9C4500D1AE
:10FCF000C5E0524452458041641840422418E70749
:10FD0000520817436408664608E71248854200D146
:10FD100085E01D00BCE629001F3EF140202B00D1EC
:10FD20007FE04022D31A9D402F437D1EAF41002427
:10FD30000F4300268EE72B000F00203BDF40202DD5
:10FD400071D040235D1BA9400A43511E8A41002106
:10FD50001743AFE6FF070000FFFF7FFFFFFF0F80A5
:10FD6000002E3ED0B34EB44545D0802636046D42B9
:10FD70003443382D00DDA8E01F2D00DD1FE12026D3
:10FD800027005046761BB740E84007435046B04036
:10FD9000461EB041EC403843171ABA4292410C1B40
:10FDA0005242A41A664698468BE6644667462C4340
:10FDB00000D08BE6002500260027EAE61E00ADE60F
:10FDC0001F2B60DC2027F81A0F00844687401000A4
:10FDD000D840074360468240501E8241D9401743B5
:10FDE000F5E626005046064305D0ED43002DD3D05E
:10FDF000904EB445BDD10C001700664698468DE67E
:10FE00008C4883420BD06346D9E6002D00D096E0A3
:10FE10000800104300D1E2E00C0017009846854E20
:10FE20007CE6002580E700218EE72300504603434F
:10FE3000002E00D0A8E0002B00D1DEE00B00134321
:10FE400000D16BE652445245804164184042241868
:10FE50001700230200D4FDE6774B66461C405DE6A2
:10FE6000250050460543002ECFD1002D4FD10C0068
:10FE7000144300D1A0E00C00170098464EE66646F9
:10FE80000024002785E61F000800203FF8400700F7
:10FE9000202B00D18EE04020C31A99400A43511E06
:10FEA0008A410021174392E6002E14D126005046C5
:10FEB000064362D0DB43002B5CD187189742924106
:10FEC00064185242A418664687E650462043441EF2
:10FED000A041002460E7574EB4454ED0802636043A
:10FEE0005B423443382B00DD7FE01F2B00DD8BE0CD
:10FEF000202627005046F61AB740D8400743504600
:10FF0000B040461EB0410743DC40BF18D6E70D00A5
:10FF1000154300D102E65046801A8245BF41651A5A
:10FF20007F42ED1B8446280200D48DE65046171A06
:10FF3000BA4292410C1B5242A41A9846EEE50D00BB
:10FF4000154300D16BE750466707C0080743802080
:10FF5000E4080003044207D0CD08054204D12C0078
:10FF60009846D70849070F437B0FE4001C43FF0066
:10FF7000304ED3E52F4EB445B4D10C001700664681
:10FF8000CCE500270024E8E5002B39D00B00134313
:10FF900000D144E7C008670707438020E408000356
:10FFA0000442E1D0CB080342DED1D70849070F4312
:10FFB0001C00D9E7002171E700250027E9E52E00A4
:10FFC0002700203EF740202D2FD04026751BAC4047
:10FFD00050462043441EA04100243843DCE68024E0
:10FFE00000252403134E0027D3E550462043070085
:10FFF000781E87410024BF1860E70C0017008DE5CC
:020000041001E9
:100000000C0017000B4E89E51E002700203EF7402C
:10001000202B0CD04026F31A9C4050462043441E0F
:10002000A04107430024BF1848E70024D0E700247C
:10003000F3E7C046FF070000FFFF7FFF30B5134D19
:100040000A034B00120B5B0DC90F0024AB4210DDFD
:100050000F4CA3420FDC80240E4D64032243ED1AA3
:100060001F2D0BDD0C48C31ADA405442002900D181
:100070001400200030BD094BCC18FAE7084CE840CA
:10008000A44663449A400243EFE7C046FE030000E3
:100090001D0400003304000013040000FFFFFF7F75
:1000A000EDFBFFFF10B5041E28D000F071F8154BD2
:1000B000154A1B1AD21A1F2A15DD144AD21A944067
:1000C000002224035B05240B5B0D00211000240398
:1000D0000A0D240B120522430D4C1B05224013432D
:1000E0005B00590810BD210091400A000B21081A3D
:1000F000C4405B052403240B5B0DE6E700230024CA
:100100000022E2E71E040000330400001304000094
:10011000FFFF0F808446101C62468C46191C634604
:1001200000E0C0461FB500F0EFF8002801D4002120
:10013000C8421FBD10B500F049F84042013010BD63
:1001400010B500F0E1F8002801DB002010BD01200F
:1001500010BDC04610B500F0D7F8002801DD002022
:1001600010BD012010BDC04610B500F069F8002890
:1001700001DC002010BD012010BDC04610B500F00C
:100180005FF8002801DA002010BD012010BDC04634
:100190001C2101231B04984201D3000C10391B0AB7
:1001A000984201D3000A08391B09984201D300097B
:1001B000043902A2105C40187047C04604030202D2
:1001C000010101010000000000000000F0B54F46F1
:1001D0004646D6465C00C0B51F03DB0F9A46174B58
:1001E0000E034D0084468046360B6D0DC90F9146B7
:1001F0003F0B640D01209D4208D09C4201D0A542D6
:100200000BD01CBC90469946A246F0BD63463343D2
:10021000F7D1AC42F5D13A43F3D10120BE42F0D13F
:10022000C845EED1514507D0002DEAD163461E43A3
:100230003000461EB041E4E70020E2E7FF0700007F
:10024000F0B54546DE4657464E46E0B51F033D0B2A
:100250002C4F0E034C00AB465D008446360B640DFC
:10026000C90F90466D0DDB0FBC422AD0254FBD4211
:100270002DD0002C0FD130430700814678427841C1
:10028000C0B2002D17D15F463A4314D14B4600202F
:10029000002B0AD006E0002D02D15846024301D0BF
:1002A000994218D04842012108433CBC90469946E7
:1002B000A246AB46F0BD0028F2D00120013B184316
:1002C000F3E737000743D1D002204042EDE75F4615
:1002D0001743CED0F8E7AC42E4DC03DA481E012134
:1002E0000843E2E75E45DDD806D000205E45DCD25B
:1002F0000123481E1843D8E7C445D3D80020C4457D
:10030000F6D3D2E7FF070000F0B54E464546DE467D
:1003100057465C00E0B51F03DB0F99462A4B0E03DE
:100320004D00C90F8446360B6D0D8B4690463F0B32
:10033000640D9D4220D0244B9C4222D0002D12D12E
:10034000304343424341DBB2002C1FD0002B0CD082
:100350004B460120013B034318003CBC90469946A4
:10036000A246AB46F0BD002C16D0CB4517D05B465D
:10037000594201230B43EFE7310002230143EBD144
:10038000D9E7390002231143E6D1D7E73A43DDD15B
:1003900000230028E0D0EAE73A43E6D1E7E7A542A8
:1003A000E5DC05DBBE42E2D807D00023BE42D3D253
:1003B0005946012301390B43CEE7C445D7D8002362
:1003C000C445F5D3C8E7C046FF07000070B5002656
:1003D0000C4D0D4C641BA410A64209D1002602F05E
:1003E0005BF80A4D0A4C641BA410A64205D170BDEF
:1003F000B300EB5898470136EEE7B300EB58984747
:100400000136F2E7A4240110A4240110A424011051
:10041000A824011030B50024A24201D1002005E03B
:10042000035D651C0C5DA34201D0181B30BD2C0080
:10043000F2E7002310B59A4200D110BDCC5CC45441
:100440000133F8E703008218934200D17047197016
:100450000133F9E70FB40B4B13B51C68002C05D022
:10046000A369002B02D1200000F042FB05AB049AE7
:10047000A1682000019300F017FD16BC08BC04B071
:100480001847C046C8240110084B70B51C68050009
:10049000002C05D0A369002B02D1200000F028FB1E
:1004A0002900A268200000F0A3FF70BDC82401103D
:1004B00070B505000E00002804D08369002B01D11F
:1004C00000F016FBAB69AC68002B02D1280000F0ED
:1004D0000FFB244B9C420FD16C68A3891B0702D5EC
:1004E0002369002B20D12100280000F093F9002877
:1004F0001AD00120404270BD1B4B9C4201D1AC6818
:10050000EBE71A4B9C42E8D1EC68E6E7013B013689
:10051000A360002B04DAA269934216DB0A2914D0E7
:1005200023685A1C226019703178A3680029EDD124
:10053000013BA360002B0FDA22000A31280000F0F3
:1005400013F9431CD5D00A20D5E72200280000F07B
:100550000BF9431CE8D1CCE70A2023685A1C22601F
:100560001870C8E724240110442401100424011049
:1005700010B5034B01001868FFF79AFF10BDC04685
:10058000C8240110154B10B51C68A36B002B15D1A6
:10059000182000F0AFFB124BA0630380114B012227
:1005A0004380114B8380114BC380114B0381052382
:1005B000438106338381002302614361A46B0D4AAA
:1005C000206961690C4B01F027F801220023801893
:1005D0005941206161614800400810BDC8240110E4
:1005E0000E330000CDABFFFF341200006DE6FFFFBD
:1005F000ECDEFFFF2D7F954C2DF451584A424A41C5
:10060000802310B55200DB0000F002F810BD00009E
:10061000F0B51D004F4B85B01E6804000F0000921E
:10062000002E05D0B369002B02D1300000F060FA33
:10063000494B9C4250D17468009B022B05D0012B82
:1006400000D984E0002D00DA81E02100300000F0C4
:10065000E1F9616B002908D023004433994202D0AC
:10066000300000F051FB002363630023A36163604B
:10067000A3891B0603D52169300000F045FBA3893F
:10068000364A1340A381009B022B5AD003AB02AA27
:100690002100300000F0C2FAA3891843A081002D88
:1006A00024D1029D280000F025FB0195071E42D1B0
:1006B000029B0193AB4239D1012040420223A2891F
:1006C0001343A3810023A3602300473323602361E6
:1006D0000123636105B0F0BD214B9C4201D1B46898
:1006E000AAE7204B9C42A7D1F468A5E7002FD9D0F8
:1006F000B369002B02D1300000F0FAF9009B012B06
:1007000003D1A389009A1A43A2810820A3892760F4
:1007100027616561184018D00120184000239842D5
:1007200011D06D42A360A5611800D3E7019800F0D5
:10073000E1FA071EC0D08023A289019D1343A38143
:10074000D6E70020BAE7A560C4E7A060C2E70120B1
:100750004042BFE7C8240110242401105CF3FFFFCE
:100760004424011004240110F8B505000E00140003
:10077000002804D08369002B01D100F0B9F9224B85
:100780009C422DD16C68A369A360A3891B0731D556
:100790002369002B2ED023682269F7B2981A636967
:1007A000F6B2984205DB2100280000F033F900285A
:1007B00026D1A3680130013BA36023685A1C226044
:1007C0001F706369984204D0A389DB071AD50A2EEB
:1007D00018D12100280000F01DF9002812D00FE0E8
:1007E0000A4B9C4201D1AC68CDE7094B9C42CAD16F
:1007F000EC68C8E72100280000F00CF80028CAD0F7
:10080000012676423000F8BD242401104424011052
:1008100004240110364B70B51D6806000C00002D35
:1008200005D0AB69002B02D1280000F061F9314BF3
:100830009C420FD16C680C23E25E93B219072DD451
:10084000D90611D409230120336037331343A38120
:10085000404270BD284B9C4201D1AC68EBE7274B6E
:100860009C42E8D1EC68E6E75B0713D5616B002991
:1008700008D023004433994202D0300000F044FAFB
:10088000002363632422A3899343A381002363602D
:10089000236923600823A2891343A3812369002BC2
:1008A0000BD1A0218022A389890092000B409342A2
:1008B00003D02100300000F0D9F90123A2891340B0
:1008C00011D00023A36063695B42A3610020236908
:1008D0008342BED10C23E25E1306BAD540231343F4
:1008E000A3810138B5E7920700D46369A360EDE7FF
:1008F000C8240110242401104424011004240110F0
:10090000F7B58A8905000C00130760D44B68002BEB
:1009100004DC0B6C002B01DC0020FEBDE76A002F1D
:10092000FAD000232E682B6080235B011A4034D05C
:10093000606DA3895B0706D56368C01A636B002BE3
:1009400001D0236CC01A0200216A00232800E76A44
:10095000B847A189431C06D12B681D2B31D82C4ADE
:10096000DA40D3072DD50023636023692360CB04CD
:1009700005D5431C02D12B68002B00D16065616B4B
:100980002E600029C8D023004433994202D02800A9
:1009900000F0BAF900206063BFE70123216A280054
:1009A000B847431CC5D12B68002BC2D01D2B01D0EA
:1009B000162B01D12E60AFE74023A2891343A381F8
:1009C000ABE740230B430120A3814042A5E70F6919
:1009D000002FA1D00B680F60DB1B0193002392074F
:1009E00000D14B69A360019B002B00DC94E7019BC5
:1009F0003A00216A2800A66AB047002803DC402399
:100A0000A2891343DFE7019B3F181B1A0193EAE712
:100A1000010040200B6970B505000C00002B01D1CE
:100A2000002070BD002804D08369002B01D100F0A4
:100A30005FF80B4B9C4209D16C680C22A35E002B23
:100A4000EED021002800FFF75BFFEAE7054B9C4250
:100A500001D1AC68F1E7044B9C42EED1EC68ECE7C5
:100A600024240110442401100424011010B502496B
:100A700000F0B2F810BDC046150A0110002310B5F1
:100A8000040003604360836081814366C281036127
:100A900043618361190008225C30FFF7D3FC054BEA
:100AA00024626362044BA362044BE362044B23633E
:100AB00010BDC04681140110A9140110E1140110E9
:100AC0000D15011070B568254A1E55430E0029000A
:100AD000743100F063F9041E08D000212A0001607F
:100AE00046600C30A0606832FFF7ACFC200070BD9F
:100AF000836913B50400002B28D18364C3640365A4
:100B0000134B144A1B6882620193984201D101235E
:100B10008361200000F020F86060200000F01CF8E5
:100B2000A060200000F018F80022E0600421606856
:100B3000FFF7A4FF01220921A068FFF79FFF02220F
:100B40001221E068FFF79AFF0123A36113BDC0469D
:100B5000002401106D0A0110F8B51E4B07001E6835
:100B6000B369002B02D13000FFF7C2FF4836B468EA
:100B70007368013B04D53368002B07D03668F6E76D
:100B80000C22A55E002D0DD06834F2E70421380058
:100B9000FFF798FF30600028F0D10C2304003B6081
:100BA0002000F8BD012320005B42E3810233A381D2
:100BB00065662560A560656025616561A56108229F
:100BC00029005C30FFF73EFC6563A563A564E5641E
:100BD000E6E7C04600240110F7B504000700002630
:100BE00001914834002C01D13000FEBD6368A56836
:100BF0000093009B013B009301D52468F2E7AB8989
:100C0000012B08D90E22AB5E013304D02900380035
:100C1000019B984706436835EBE7000070B50E006E
:100C20001D000E23C95E90B01400002907DA0023CE
:100C30002B60B3891B0611D48023DB000FE001AACF
:100C400000F090FC0028F2DBF022029B120213401D
:100C5000054A9B185A4253412B60EDE74023002080
:100C6000236010B070BDC04600E0FFFFF7B502265C
:100C70008B8905000C00334206D0230047332360E4
:100C8000236101236361F7BD01AB6A46FFF7C6FF2D
:100C900000990700280000F081F8002808D10C22F4
:100CA000A35E9A05EFD4032293431E43A681E4E793
:100CB0000F4BAB628023A28920601343A381009B6A
:100CC00020616361019B002B0DD00E23E15E2800A3
:100CD00000F05AFC002806D00322A38993431A008F
:100CE00001231343A381A0893843A081CBE7C046E9
:100CF0006D0A011010B5034B0100186800F04EF8A2
:100D000010BDC046C824011070B50500002910D0E0
:100D10000C1F2368002B00DAE418280000F065FCA3
:100D20001D4A1368002B05D163601460280000F091
:100D30005DFC70BDA34209D9216860188342F3D1DC
:100D400018685B6841182160EEE713005A68002AB2
:100D500001D0A242F9D919685818A0420BD12068D5
:100D60000918581819608242E0D110685268411879
:100D700019605A60DAE7A04202D90C232B60D5E74C
:100D800021686018824203D11068526841182160BE
:100D900062605C60CAE7C0462C3B0110032370B55B
:100DA000CD1C9D43083506000C2D1ED20C25A942F2
:100DB0001DD8300000F019FC254A146821000029D4
:100DC00019D1244C2368002B03D1300000F046FBDE
:100DD00020602900300000F041FB431C2CD10C2383
:100DE0003000336000F002FC03E0002DDFDA0C235A
:100DF0003360002070BD0B685B1B1AD40B2B03D92A
:100E00000B60CC18256003E08C420ED16368136040
:100E1000300000F0EBFB200007220B30231D904335
:100E2000C31AE7D05A42E250E4E74B6863600C0013
:100E3000EEE70C004968C2E70323C41C9C43A042B0
:100E4000E0D0211A300000F009FB431CDAD1C6E7DC
:100E50002C3B0110303B0110936810B5013B9360AF
:100E6000002B05DA9469A34208DBCBB20A2B05D02C
:100E70001368581C10601970C8B210BDFFF774FCDD
:100E8000FBE7F8B506000F001400D518AC4201D1FD
:100E9000002007E021783A003000FFF7DDFF013441
:100EA000431CF3D1F8BD0000F0B59FB006000F0061
:100EB00014000593002804D08369002B01D1FFF7AB
:100EC00017FE7F4B9F425CD17768BB891B0762D5B9
:100ED0003B69002B5FD0002306AD6B6120336B763E
:100EE0001033AB760294029C2378002B5DD1029BD9
:100EF000E31A04930DD0049B029A39003000FFF7E7
:100F0000C0FF431C00D1CCE06A69049B9446634453
:100F10006B612378002B00D1C3E0012200235242F1
:100F20006A6002A95432521801342B60EB60AB6046
:100F30001370AB6521780522624800F04BFB631CFF
:100F40009C46002835D12968CB0604D5532302AA34
:100F500020309B1818700B0704D553232B2002AAAE
:100F60009B18187023782A2B2CD000200A21099B6B
:100F70002278303A092A00D86BE000282AD0099359
:100F800028E0514B9F4201D1B7689EE74F4B9F42EB
:100F90009BD1F76899E739003000FFF73BFC002848
:100FA00099D0012040421FB0F0BD252B9FD00134C5
:100FB0009AE7444B2968C01A012383400B432B60F6
:100FC0006446B7E7059B181D1B680590002B3ADBAC
:100FD0000993644623782E2B0BD16378621C2A2B4D
:100FE0003FD1059B02341A1D1B680592002B35DB8F
:100FF000079321780322364800F0ECFA002807D046
:10100000334B2A68C01A4023834013432B600134BA
:101010002178631C06222F480293297600F0DAFA21
:10102000002844D02C4B002B2FD12968059B072288
:10103000C90528D59B189343083305936B69039A18
:101040009B186B614FE75B42EB6002230B432B6005
:10105000BFE74B4301349B18012089E701235B4222
:10106000C6E7002314000A201A006B60217830398B
:10107000092903D9002BBCD00792BAE742430134B7
:1010800052180123F2E70733D5E705AB00933A0086
:10109000124B2900300000E000BF0390039B013396
:1010A000CCD1BB895B0600D57BE70B987BE705AB12
:1010B00000933A00094B2900300000F07FF8ECE77C
:1010C000242401106424011044240110042401107C
:1010D0006A2401106E24011000000000830E01102C
:1010E000F7B5150001938A680B6900900C009342D4
:1010F00000DA130022002B6043321278002A01D05C
:1011000001332B6023689B0602D52B6802332B60CA
:10111000062723681F4027D0230043331B785A1E1D
:1011200093412268920630D42200019943320098FC
:10113000089EB047431C25D0062320682A68E16832
:1011400003400025042B03D18D1AEB43DB171D4010
:10115000A3682269934201DD9B1AED180027BD4266
:1011600020D1002010E00137E3682A689B1A9F42D3
:10117000D2DA22000123193201990098089EB04763
:10118000431CF0D101204042FEBD3020E118433124
:10119000087021005A1C45310978A21843320233E5
:1011A0001170C1E7220001231A3201990098089EAC
:1011B000B047431CE6D00137D1E70000F0B58BB053
:1011C00006920A0043320793059004920A7E0C00AF
:1011D000109B6E2A00D18FE017D8632A2CD008D834
:1011E000002A00D199E0582A54D0260042363270A5
:1011F00029E0642A01D0692AF7D121681A68080613
:1012000023D5111D1960156825E0732A00D188E0E7
:1012100008D86F2A29D0702AE7D1202209680A430A
:10122000226003E0752A20D0782ADED122007821BE
:10123000453211706C4A30E00E001A684236111DBA
:10124000196013683370012379E04906D9D5111D5F
:1012500019600023D55E002D03DA2D23049A6D4218
:101260001370624B0A2703932FE020681968050664
:1012700003D5081D18600D6805E04006F9D50D6816
:10128000081D1860ADB2594B082703936F2A18D078
:101290000A2716E045310A70544A03921A682168F9
:1012A000101D18601568080622D5CB0702D520232B
:1012B000194321601027002D03D1202322689A436F
:1012C00022602300002243331A706368A360002B5E
:1012D0005CDB0422216891432160002D58D1049EDB
:1012E000002B64D02600039B42361B7833705EE0EF
:1012F0004806DAD5ADB2D8E709681A68080605D5F8
:10130000111D1960136862691A6006E04906F7D575
:10131000111D19601368A28A1A800023049E23619C
:1013200054E01A68111D19601668002162683000C7
:1013300000F050F9002801D0801B606063682361D1
:101340000023049A137041E023693200069905983E
:10135000079DA847431C43D0236800259B070FD453
:10136000099BE06898423DDA18003BE02200012327
:10137000193206990598079EB047431C30D00135B5
:10138000E368099A9B1A9D42F0DBE9E7002DA9D09A
:10139000049E28003900FEF797F8039B013E5B5C32
:1013A000280033703900FEF709F8051EF1D1082F27
:1013B00009D12368DB0706D563682269934202DC02
:1013C0003023013E3370049B9B1B2361079B09AABA
:1013D00000932100069B0598FFF782FE431CB3D1C2
:1013E000012040420BB0F0BD86240110752401108D
:1013F00070B506000D001400002804D08369002B8E
:1014000001D1FFF775FB124B9C4211D17468A368A0
:10141000013BA360002B05DAA269934212DBEBB219
:101420000A2B0FD02368E8B25A1C22601D7070BDD1
:10143000084B9C4201D1B468E9E7074B9C42E6D1D6
:10144000F468E4E7220029003000FFF78DF9EEE7A9
:10145000242401104424011004240110002370B539
:10146000064C050008002360F8F74CFF431C03D12D
:101470002368002B00D02B6070BDC0464C4E01107D
:1014800070B50C000E25495F00F0B2F8002803DBB0
:10149000636D1B18636570BDA389024A1340A38165
:1014A000F9E7C046FFEFFFFFF8B51F008B89050085
:1014B0000C001600DB0505D50E23C95E00220223B1
:1014C00000F074F8A389054A28001340A381320074
:1014D0000E23E15E3B0000F01FF8F8BDFFEFFFFFB9
:1014E00070B50C000E25495F00F060F8A389421C1E
:1014F00003D1054A1340A38170BD802252011343DA
:10150000A3816065F8E7C046FFEFFFFF10B50E232B
:10151000C95E00F015F810BD70B505000800110097
:101520000022064C22601A00F8F7C4FE431C03D1C7
:101530002368002B00D02B6070BDC0464C4E0110BC
:10154000002370B5064C050008002360F8F7ECFE98
:10155000431C03D12368002B00D02B6070BDC04614
:101560004C4E0110002370B5064C05000800110018
:101570002360F8F7DCFE431C03D12368002B00D066
:101580002B6070BD4C4E0110002370B5064C050059
:1015900008002360F8F7D0FE431C03D12368002B1A
:1015A00000D02B6070BDC0464C4E011070B50500D8
:1015B000080011000022064C22601A00F8F7BEFE57
:1015C000431C03D12368002B00D02B6070BDC046A4
:1015D0004C4E0110C9B28218904201D100207047D0
:1015E00003788B42FBD00130F6E77047704700006C
:1015F00070B50500080011000022064C22601A0098
:10160000F8F736FE431C03D12368002B00D02B6073
:1016100070BDC0464C4E0110F0B5CE46474615048D
:101620002D0C2E0080B50704140C3F0C9946030CBA
:101630007E435D43674363437F19340CE4199C4642
:10164000A54203D980235B029846C4444B465143CC
:1016500043433604360C250C24046544A419591858
:10166000491920000CBC90469946F0BD0096001028
:101670000E9600101C9600102A9600103896001046
:101680004696001054960010649600107496001050
:101690008496001094960010A4960010B496001042
:1016A000C4960010D4960010E4960010F496001032
:1016B000049700101497001024970010349700101E
:1016C000449700105497001064970010749700100E
:1016D0008497001094970010A4970010B297001000
:1016E000C0970010CE970010DC970010EA9700100A
:1016F000F897001006980010149800102498001015
:101700003498001044980010549800106498001009
:10171000749800108498001094980010A4980010F9
:10172000B4980010C4980010D4980010E4980010E9
:10173000F4980010049900101499001022990010D8
:10174000309900107099001098990010C0990010FD
:10175000E8990010289C0010189A0010309A001088
:10176000A89A0010C09A0010489A0010609A0010C1
:10177000789A0010909A0010D89A00108C9D001052
:101780008C9D00108C9D00108C9D00108C9D001075
:101790008C9D00108C9D00108C9D0010809B001073
:1017A000989B0010B09B00103C9C0010089B001000
:1017B0008C9D00108C9D00108C9D00108C9D001045
:1017C0008C9D00108C9D0010C89B0010E09B0010A9
:1017D000F89B0010109C00108C9D0010449D001080
:1017E0005C9D00108C9D00108C9D0010649C00106E
:1017F000789C00108C9C0010A09C00108C9D001008
:101800008C9D00108C9D00108C9D00108C9D0010F4
:101810008C9D00108C9D00108C9D00105C99001018
:1018200084990010AC990010D4990010009A00100F
:10183000F09A0010209B0010389B0010509B001065
:10184000689B0010509C0010189D00102C9D0010EB
:10185000749D001096A500100CA5001060A5001046
:1018600060A5001060A5001096A5001060A50010EE
:1018700060A5001092B00010D2B0001012B100109C
:1018800052B1001084B10010B2B10010F0B10010DC
:1018900044B7001044B7001044B7001068B80010F7
:1018A00044B7001044B7001044B7001044B700100C
:1018B00044B7001044B7001044B7001044B70010FC
:1018C00044B7001044B7001044B7001044B70010EC
:1018D00044B7001044B7001044B7001044B70010DC
:1018E00066B7001066B7001066B7001066B7001044
:1018F00066B7001066B7001066B7001066B7001034
:1019000066B7001066B700108CB700108CB70010D7
:101910008CB700108CB700108CB700108CB700107B
:101920008CB700108CB700108CB700108CB700106B
:10193000B0B70010B0B70010B0B70010B0B70010CB
:10194000B0B70010B0B70010CAB70010CAB7001087
:10195000CAB70010CAB70010CAB70010CAB7001043
:10196000CAB70010CAB70010CAB70010E4B7001019
:10197000E4B7001008B8001008B8001008B800104C
:1019800008B80010313233343536000000ABCDEFEB
:10199000ABCDEF000006D6B2F005F0F80000000075
:1019A000436F6E6E656374696F6E20706172616DF6
:1019B000657465722075706461746520646F6E650E
:1019C000207375636365737300000000436F6E6E70
:1019D000656374696F6E20496E74657276616C3AE6
:1019E00025642C20436F6E6E656374696F6E206C86
:1019F0006174656E63793A25642C2048646C3A25DD
:101A0000642C205375706572766973696F6E20540B
:101A1000696D656F75743A2564200000436F6E6EC2
:101A2000656374696F6E20706172616D6574657253
:101A30002075706461746520646F6E652D46616900
:101A40006C6564207374617475733A2564000000DA
:101A5000436F6E6E656374696F6E20506172616D65
:101A60002055706461746520526571756573742DBD
:101A70002D2D48646C3A25642C20436F6E6E2E4CDD
:101A80006174656E63793A25642C20436F6E6E2E07
:101A9000496E74657276616C204D61783A25642CCC
:101AA00020436F6E6E2E496E74657276616C204DA8
:101AB000696E3A25642C20436F6E6E2E53757065E7
:101AC00072766973696F6E3A25640000436F6E6EBB
:101AD000656374656420746F207065657220646549
:101AE00076696365207769746820616464726573E0
:101AF00073203078253032782530327825303278AE
:101B000025303278253032782530327800000000D8
:101B1000436F6E6E656374696F6E2048616E646CAE
:101B200065202564000000004D6178206E756D62AF
:101B30006572206F6620636F6E6E656374696F6E89
:101B400020726561636865643A202564203D3D3DEF
:101B50003E446973636F6E6E656374696E672E2EA3
:101B60002E0000005265736F6C76696E67205261BB
:101B70006E646F6D20616464726573732066616961
:101B80006C65642A2A000000446576696365204319
:101B90006F6E6E656374696F6E204661696C656413
:101BA000202D205374617475733A20256400000061
:101BB00053414D423131205850726F204D6F647542
:101BC0006C653A4D522053414D4231312D4D5200FA
:101BD000496E697469616C697A696E672053414D19
:101BE0004231310053414D42313120496E697469AF
:101BF000616C697A6174696F6E206661696C656495
:101C000000000000506C6561736520636865636B5C
:101C10002074686520706F77657220616E64206340
:101C20006F6E6E656374696F6E202F2068617264D9
:101C30007761726520636F6E6E6563746F7200000A
:101C400053414D42313120436869702049443A2064
:101C5000307825365800000041544D454C2D424CFB
:101C60004500000053414D423131204368697020E6
:101C70006964656E74696669636174696F6E206614
:101C800061696C6564000000446576696365206E77
:101C9000616D6520736574206661696C6564000020
:101CA00042442061646472657373206765742066C2
:101CB00061696C656400000042442041646472659F
:101CC00073733A3078253032582530325825303207
:101CD000582530325825303258253032582C204182
:101CE00064647265737320547970653A25640000EA
:101CF00053657420424C45204465766963652063D2
:101D00006F6E66696775726174696F6E206661696E
:101D10006C65640053657420424C452044657669C7
:101D200063652041646472657373206661696C65E4
:101D30006400000044657669636520646973636FBD
:101D40006E6E656374656420526561736F6E3A30C0
:101D500078253032782048616E646C653D30782596
:101D60007800000050616972696E6720696E666F65
:101D7000726D6174696F6E206F6620706565722088
:101D8000646576696365206973206E6F742061767F
:101D900061696C61626C652E00000000506C6561C9
:101DA000736520756E706169722074686520646562
:101DB000766963652066726F6D2070656572206458
:101DC0006576696365286D6F62696C652920736546
:101DD0007474696E6773206D656E7520616E642022
:101DE00073746172742070616972696E67206167D3
:101DF00061696E00456E6372797074696F6E20520E
:101E0000657175657374205265706C7920466169DF
:101E10006C656400456E6372797074696F6E2066DC
:101E200061696C6564000000456E63727970746965
:101E30006F6E20636F6D706C65746564207375637D
:101E40006365737366756C6C79000000424C4520C5
:101E5000446576696365206E6F7420666F756E6485
:101E600020656E6372797074696F6E20696E666F3B
:101E700000000000424C452D4D616E616765723A6D
:101E8000556E6B6E6F776E204576656E743D30785B
:101E90002558000041A30010E9A5001055A300102B
:101EA00000000000000000000000000069A6001013
:101EB000DDA40010B9A30010A5A80010E1B5001022
:101EC000CDAA0010EDA8001021AC001075AD0010D7
:101ED00015A4001089AE00100000000000000000F2
:101EE00000000000000000000000000000000000F2
:101EF00000000000000000000000000045A30010EA
:101F000089A3001049A30010000000004D54552083
:101F10004368616E6765204661696C65642C204387
:101F20006F6E6E656374696F6E2048616E646C6578
:101F30003A25642C204F7065726174696F6E3A2582
:101F40006400000050616972696E67206661696CA7
:101F500065642E2E2E7374617475732025640000E1
:101F6000446973636F6E6E656374696E67202E2EAD
:101F70002E2E000050616972696E672070726F6367
:101F8000656475726520636F6D706C65746564203F
:101F90007375636365737366756C6C79000000001C
:101FA000424C4520446576696365206E6F742066F7
:101FB0006F756E6420746F2073746F72652074681F
:101FC000652070616972696E6720696E666F0000D6
:101FD000456E7465722074686520506173736B651B
:101FE0007928362D44696769742920696E20546503
:101FF000726D696E616C3A0050696E2054696D654E
:102000006F757400446973636F6E6E656374696E97
:1020100067202E2E2E000000446973636F6E6E657C
:1020200063742052657175657374204661696C65CF
:1020300064000000506C6561736520456E746572C4
:102040002074686520666F6C6C6F77696E672050CE
:102050006173732D636F6465286F6E206F7468659C
:102060007220446576696365293A0000506169729F
:102070002D6B6579207265706C79206661696C657D
:10208000640000004F4F4220466561747572652000
:102090004E6F7420737570706F7274656400000009
:1020A000456E746572656420506173732D636F644F
:1020B000653A0000506169722052657175657374EC
:1020C000202D2041757468656E7469636174696F51
:1020D0006E204661696C656400000000496E666FA1
:1020E0003A6D6178696D756D206E6F2E6F66207325
:1020F00063616E20646576696365207265616368FB
:1021000065642E2E2E53746F7070696E6720536352
:10211000616E00004661696C656420746F207374A1
:102120006F70207363616E6E696E67000D00000052
:102130005363616E6E696E6720206661696C6564C9
:1021400000000000426C75536D61727453444B2063
:102150004669726D776172652056657273696F6E3C
:102160003A25582E25582E25580000004572726FCA
:10217000723A4C6962726172792076657273696F26
:102180006E20646F65736E2774206D6174636820C0
:10219000776974682053444B2076657273696F6E5B
:1021A0002E20506C65617365207573652025582E4F
:1021B00025582076657273696F6E206F66206C6992
:1021C000627261727900000053414D4231312052F8
:1021D000462056657273696F6E3A3078253858001C
:1021E0004572726F723A204661696C656420746F43
:1021F000206765742053414D4231312052462056AC
:10220000657273696F6E00004572726F723A204694
:1022100061696C656420746F2067657420426C7519
:10222000536D61727453444B204669726D776172CD
:10223000652056657273696F6E000000456E6372AB
:10224000797074696F6E204E6F742073746172744C
:1022500065640000536C617665205365637572692F
:10226000747920526571202D2041757468656E74F3
:1022700069636174696F6E204661696C6564000012
:1022800000CDAA0A546573744E6F64652D31000049
:10229000083031323334353637000000496E697406
:1022A00069616C697A696E672042726F616463610B
:1022B00073746572204170706C69636174696F6ECC
:1022C000000000004164766572746973656D656E27
:1022D0007420747970652073657420746F20736343
:1022E000616E6E61626C6520756E6469726563749F
:1022F000656400006D616E75666163747572657208
:10230000206461746120736574000000424C4520B4
:1023100042726F61646361737420646174612073DD
:102320006574206661696C6564000000424C45205C
:1023300042726F61646361737420646174612073BD
:10234000657420737563636573730000424C4520A8
:1023500042726F616463617374207374617274207C
:102360006661696C65642825642900005374617294
:102370007465642042726F616463617374696E672F
:1023800000000000616464696E67206D616E7566AF
:10239000616374757265722064617461206661693D
:1023A0006C65640041746D656C20436F72702E0023
:1023B00003010303030303030303030303020000F6
:1023C00000F70010C0F50010C0F50010BCF50010BB
:1023D000D8F60010D8F60010CAF60010BCF50010B0
:1023E000D8F60010CAF60010D8F60010BCF50010A0
:1023F000E0F60010E0F60010E0F60010E4F800103F
:10240000CC240110000000000000000000000000CB
:1024100000000000000000000000000000000000BC
:1024200000000000000000000000000000000000AC
:10243000000000000000000000000000000000009C
:10244000000000000000000000000000000000008C
:10245000000000000000000000000000000000007C
:1024600000000000232D302B2000686C4C006566B6
:1024700067454647003031323334353637383941D5
:1024800042434445460030313233343536373839EB
:102490006162636465660000F8B5C046F8BC08BCBC
:1024A0009E467047A5900010F8B5C046F8BC08BC21
:0824B0009E4670477D9000106C
:1024B80001000000030000000A000000484A011063
:1024C800CC24011000000000242401104424011031
:1024D80004240110000000000000000000000000BB
:1024E80000000000000000000000000000000000E4
:1024F80000000000000000000000000000000000D4
:1025080000000000000000000000000000000000C3
:1025180000000000000000000000000000000000B3
:0425280000000000AF
:040000051000900156
:00000001FF
